{
  "contractName": "PiratesCatcher",
  "abi": [
    {
      "anonymous": false,
      "inputs": [
        {
          "indexed": false,
          "internalType": "address",
          "name": "cinema",
          "type": "address"
        },
        {
          "indexed": false,
          "internalType": "string",
          "name": "id",
          "type": "string"
        },
        {
          "indexed": false,
          "internalType": "string",
          "name": "time",
          "type": "string"
        }
      ],
      "name": "CinemaTelecasted",
      "type": "event"
    },
    {
      "anonymous": false,
      "inputs": [
        {
          "indexed": false,
          "internalType": "string",
          "name": "siahash",
          "type": "string"
        }
      ],
      "name": "FinalEditingDone",
      "type": "event"
    },
    {
      "anonymous": false,
      "inputs": [
        {
          "indexed": false,
          "internalType": "string",
          "name": "coreidea",
          "type": "string"
        },
        {
          "indexed": false,
          "internalType": "string",
          "name": "producer",
          "type": "string"
        }
      ],
      "name": "IdeationDone",
      "type": "event"
    },
    {
      "anonymous": false,
      "inputs": [
        {
          "indexed": false,
          "internalType": "address",
          "name": "piratecinema",
          "type": "address"
        },
        {
          "indexed": false,
          "internalType": "address",
          "name": "reporter",
          "type": "address"
        }
      ],
      "name": "PirateReported",
      "type": "event"
    },
    {
      "anonymous": false,
      "inputs": [
        {
          "indexed": false,
          "internalType": "string",
          "name": "cast",
          "type": "string"
        },
        {
          "indexed": false,
          "internalType": "string",
          "name": "budget",
          "type": "string"
        },
        {
          "indexed": false,
          "internalType": "string",
          "name": "shootlocation",
          "type": "string"
        }
      ],
      "name": "Preproduction",
      "type": "event"
    },
    {
      "anonymous": false,
      "inputs": [
        {
          "indexed": false,
          "internalType": "string",
          "name": "shoothash",
          "type": "string"
        },
        {
          "indexed": false,
          "internalType": "string",
          "name": "shootdate",
          "type": "string"
        }
      ],
      "name": "Production",
      "type": "event"
    },
    {
      "anonymous": false,
      "inputs": [
        {
          "indexed": false,
          "internalType": "string",
          "name": "id",
          "type": "string"
        },
        {
          "indexed": false,
          "internalType": "string",
          "name": "name",
          "type": "string"
        },
        {
          "indexed": false,
          "internalType": "string",
          "name": "director",
          "type": "string"
        },
        {
          "indexed": false,
          "internalType": "string",
          "name": "writer",
          "type": "string"
        },
        {
          "indexed": false,
          "internalType": "string",
          "name": "genre",
          "type": "string"
        },
        {
          "indexed": false,
          "internalType": "string",
          "name": "language",
          "type": "string"
        },
        {
          "indexed": false,
          "internalType": "string",
          "name": "country",
          "type": "string"
        },
        {
          "indexed": false,
          "internalType": "address",
          "name": "directoraddress",
          "type": "address"
        }
      ],
      "name": "RegistrationDone",
      "type": "event"
    },
    {
      "constant": false,
      "inputs": [
        {
          "internalType": "string",
          "name": "id",
          "type": "string"
        },
        {
          "internalType": "string",
          "name": "name",
          "type": "string"
        },
        {
          "internalType": "string",
          "name": "director",
          "type": "string"
        },
        {
          "internalType": "string",
          "name": "writer",
          "type": "string"
        },
        {
          "internalType": "string",
          "name": "genre",
          "type": "string"
        },
        {
          "internalType": "string",
          "name": "language",
          "type": "string"
        },
        {
          "internalType": "string",
          "name": "country",
          "type": "string"
        }
      ],
      "name": "register",
      "outputs": [],
      "payable": false,
      "stateMutability": "nonpayable",
      "type": "function"
    },
    {
      "constant": false,
      "inputs": [
        {
          "internalType": "string",
          "name": "id",
          "type": "string"
        },
        {
          "internalType": "string",
          "name": "coreidea",
          "type": "string"
        },
        {
          "internalType": "string",
          "name": "producer",
          "type": "string"
        }
      ],
      "name": "ideation",
      "outputs": [],
      "payable": false,
      "stateMutability": "nonpayable",
      "type": "function"
    },
    {
      "constant": false,
      "inputs": [
        {
          "internalType": "string",
          "name": "id",
          "type": "string"
        },
        {
          "internalType": "string",
          "name": "cast",
          "type": "string"
        },
        {
          "internalType": "string",
          "name": "budget",
          "type": "string"
        },
        {
          "internalType": "string",
          "name": "shootlocation",
          "type": "string"
        }
      ],
      "name": "preproduction",
      "outputs": [],
      "payable": false,
      "stateMutability": "nonpayable",
      "type": "function"
    },
    {
      "constant": false,
      "inputs": [
        {
          "internalType": "string",
          "name": "id",
          "type": "string"
        },
        {
          "internalType": "string",
          "name": "ipfshashes",
          "type": "string"
        },
        {
          "internalType": "string",
          "name": "shootdate",
          "type": "string"
        }
      ],
      "name": "productionshoot",
      "outputs": [],
      "payable": false,
      "stateMutability": "nonpayable",
      "type": "function"
    },
    {
      "constant": false,
      "inputs": [
        {
          "internalType": "string",
          "name": "id",
          "type": "string"
        },
        {
          "internalType": "string",
          "name": "siahash",
          "type": "string"
        }
      ],
      "name": "finalediting",
      "outputs": [],
      "payable": false,
      "stateMutability": "nonpayable",
      "type": "function"
    },
    {
      "constant": true,
      "inputs": [
        {
          "internalType": "string",
          "name": "id",
          "type": "string"
        }
      ],
      "name": "getmovie",
      "outputs": [
        {
          "components": [
            {
              "internalType": "string",
              "name": "id",
              "type": "string"
            },
            {
              "internalType": "string",
              "name": "name",
              "type": "string"
            },
            {
              "internalType": "string",
              "name": "director",
              "type": "string"
            },
            {
              "internalType": "string",
              "name": "writer",
              "type": "string"
            },
            {
              "internalType": "string",
              "name": "genre",
              "type": "string"
            },
            {
              "internalType": "string",
              "name": "language",
              "type": "string"
            },
            {
              "internalType": "string",
              "name": "country",
              "type": "string"
            },
            {
              "internalType": "string",
              "name": "coreidea",
              "type": "string"
            },
            {
              "internalType": "string",
              "name": "producer",
              "type": "string"
            },
            {
              "internalType": "string",
              "name": "cast",
              "type": "string"
            },
            {
              "internalType": "string",
              "name": "budget",
              "type": "string"
            },
            {
              "internalType": "string",
              "name": "shootlocation",
              "type": "string"
            },
            {
              "internalType": "string",
              "name": "shoothashes",
              "type": "string"
            },
            {
              "internalType": "string",
              "name": "siahash",
              "type": "string"
            },
            {
              "internalType": "string",
              "name": "shootdate",
              "type": "string"
            },
            {
              "internalType": "address",
              "name": "directoraddress",
              "type": "address"
            }
          ],
          "internalType": "struct PiratesCatcher.Movie",
          "name": "",
          "type": "tuple"
        }
      ],
      "payable": false,
      "stateMutability": "view",
      "type": "function"
    },
    {
      "constant": true,
      "inputs": [
        {
          "internalType": "string",
          "name": "id",
          "type": "string"
        }
      ],
      "name": "getmoviehash",
      "outputs": [
        {
          "internalType": "string",
          "name": "",
          "type": "string"
        }
      ],
      "payable": false,
      "stateMutability": "view",
      "type": "function"
    },
    {
      "constant": false,
      "inputs": [
        {
          "internalType": "string",
          "name": "id",
          "type": "string"
        },
        {
          "internalType": "address payable",
          "name": "piratecinema",
          "type": "address"
        },
        {
          "internalType": "address payable",
          "name": "reporter",
          "type": "address"
        }
      ],
      "name": "reporterbounty",
      "outputs": [],
      "payable": true,
      "stateMutability": "payable",
      "type": "function"
    },
    {
      "constant": false,
      "inputs": [
        {
          "internalType": "address",
          "name": "cinema",
          "type": "address"
        },
        {
          "internalType": "string",
          "name": "id",
          "type": "string"
        },
        {
          "internalType": "string",
          "name": "time",
          "type": "string"
        }
      ],
      "name": "cinematelecasted",
      "outputs": [],
      "payable": false,
      "stateMutability": "nonpayable",
      "type": "function"
    }
  ],
  "bytecode": "0x608060405234801561001057600080fd5b5061558680620000216000396000f3fe6080604052600436106100865760003560e01c8063505d216911610059578063505d2169146101575780637160ed571461017357806374a22bfd1461019c5780639d0c9fca146101c5578063fa6ba079146101ee57610086565b80631a13a6f11461008b57806324087b72146100c85780632cc5abcb146100f1578063309fd1271461011a575b600080fd5b34801561009757600080fd5b506100b260048036036100ad9190810190614b3a565b610217565b6040516100bf9190615236565b60405180910390f35b3480156100d457600080fd5b506100ef60048036036100ea9190810190614c4e565b610431565b005b3480156100fd57600080fd5b5061011860048036036101139190810190614be2565b611133565b005b34801561012657600080fd5b50610141600480360361013c9190810190614b3a565b611de7565b60405161014e919061538a565b60405180910390f35b610171600480360361016c9190810190614b7b565b61286d565b005b34801561017f57600080fd5b5061019a60048036036101959190810190614abb565b612a4b565b005b3480156101a857600080fd5b506101c360048036036101be9190810190614ce5565b612ba7565b005b3480156101d157600080fd5b506101ec60048036036101e79190810190614da8565b6138bb565b005b3480156101fa57600080fd5b5061021560048036036102109190810190614c4e565b613c05565b005b606060008260405161022991906151b1565b9081526020016040518091039020600f0160009054906101000a900473ffffffffffffffffffffffffffffffffffffffff1673ffffffffffffffffffffffffffffffffffffffff163373ffffffffffffffffffffffffffffffffffffffff1614806102d3575073a79802199a381b3fcd2bd06c84795627607a7e8373ffffffffffffffffffffffffffffffffffffffff163373ffffffffffffffffffffffffffffffffffffffff16145b8061031d5750736ac459937a1d1fc58b3f8c615153d91e75106d4873ffffffffffffffffffffffffffffffffffffffff163373ffffffffffffffffffffffffffffffffffffffff16145b80610367575073a1b0e0b3a4e8b4e6c897b3fa8ec0a22f8927209473ffffffffffffffffffffffffffffffffffffffff163373ffffffffffffffffffffffffffffffffffffffff16145b61037057600080fd5b60008260405161038091906151b1565b9081526020016040518091039020600d018054600181600116156101000203166002900480601f0160208091040260200160405190810160405280929190818152602001828054600181600116156101000203166002900480156104255780601f106103fa57610100808354040283529160200191610425565b820191906000526020600020905b81548152906001019060200180831161040857829003601f168201915b50505050509050919050565b60008360405161044191906151b1565b9081526020016040518091039020600f0160009054906101000a900473ffffffffffffffffffffffffffffffffffffffff1673ffffffffffffffffffffffffffffffffffffffff163373ffffffffffffffffffffffffffffffffffffffff16146104aa57600080fd5b6104b2614905565b6000846040516104c291906151b1565b908152602001604051809103902060405180610200016040529081600082018054600181600116156101000203166002900480601f0160208091040260200160405190810160405280929190818152602001828054600181600116156101000203166002900480156105755780601f1061054a57610100808354040283529160200191610575565b820191906000526020600020905b81548152906001019060200180831161055857829003601f168201915b50505050508152602001600182018054600181600116156101000203166002900480601f0160208091040260200160405190810160405280929190818152602001828054600181600116156101000203166002900480156106175780601f106105ec57610100808354040283529160200191610617565b820191906000526020600020905b8154815290600101906020018083116105fa57829003601f168201915b50505050508152602001600282018054600181600116156101000203166002900480601f0160208091040260200160405190810160405280929190818152602001828054600181600116156101000203166002900480156106b95780601f1061068e576101008083540402835291602001916106b9565b820191906000526020600020905b81548152906001019060200180831161069c57829003601f168201915b50505050508152602001600382018054600181600116156101000203166002900480601f01602080910402602001604051908101604052809291908181526020018280546001816001161561010002031660029004801561075b5780601f106107305761010080835404028352916020019161075b565b820191906000526020600020905b81548152906001019060200180831161073e57829003601f168201915b50505050508152602001600482018054600181600116156101000203166002900480601f0160208091040260200160405190810160405280929190818152602001828054600181600116156101000203166002900480156107fd5780601f106107d2576101008083540402835291602001916107fd565b820191906000526020600020905b8154815290600101906020018083116107e057829003601f168201915b50505050508152602001600582018054600181600116156101000203166002900480601f01602080910402602001604051908101604052809291908181526020018280546001816001161561010002031660029004801561089f5780601f106108745761010080835404028352916020019161089f565b820191906000526020600020905b81548152906001019060200180831161088257829003601f168201915b50505050508152602001600682018054600181600116156101000203166002900480601f0160208091040260200160405190810160405280929190818152602001828054600181600116156101000203166002900480156109415780601f1061091657610100808354040283529160200191610941565b820191906000526020600020905b81548152906001019060200180831161092457829003601f168201915b50505050508152602001600782018054600181600116156101000203166002900480601f0160208091040260200160405190810160405280929190818152602001828054600181600116156101000203166002900480156109e35780601f106109b8576101008083540402835291602001916109e3565b820191906000526020600020905b8154815290600101906020018083116109c657829003601f168201915b50505050508152602001600882018054600181600116156101000203166002900480601f016020809104026020016040519081016040528092919081815260200182805460018160011615610100020316600290048015610a855780601f10610a5a57610100808354040283529160200191610a85565b820191906000526020600020905b815481529060010190602001808311610a6857829003601f168201915b50505050508152602001600982018054600181600116156101000203166002900480601f016020809104026020016040519081016040528092919081815260200182805460018160011615610100020316600290048015610b275780601f10610afc57610100808354040283529160200191610b27565b820191906000526020600020905b815481529060010190602001808311610b0a57829003601f168201915b50505050508152602001600a82018054600181600116156101000203166002900480601f016020809104026020016040519081016040528092919081815260200182805460018160011615610100020316600290048015610bc95780601f10610b9e57610100808354040283529160200191610bc9565b820191906000526020600020905b815481529060010190602001808311610bac57829003601f168201915b50505050508152602001600b82018054600181600116156101000203166002900480601f016020809104026020016040519081016040528092919081815260200182805460018160011615610100020316600290048015610c6b5780601f10610c4057610100808354040283529160200191610c6b565b820191906000526020600020905b815481529060010190602001808311610c4e57829003601f168201915b50505050508152602001600c82018054600181600116156101000203166002900480601f016020809104026020016040519081016040528092919081815260200182805460018160011615610100020316600290048015610d0d5780601f10610ce257610100808354040283529160200191610d0d565b820191906000526020600020905b815481529060010190602001808311610cf057829003601f168201915b50505050508152602001600d82018054600181600116156101000203166002900480601f016020809104026020016040519081016040528092919081815260200182805460018160011615610100020316600290048015610daf5780601f10610d8457610100808354040283529160200191610daf565b820191906000526020600020905b815481529060010190602001808311610d9257829003601f168201915b50505050508152602001600e82018054600181600116156101000203166002900480601f016020809104026020016040519081016040528092919081815260200182805460018160011615610100020316600290048015610e515780601f10610e2657610100808354040283529160200191610e51565b820191906000526020600020905b815481529060010190602001808311610e3457829003601f168201915b50505050508152602001600f820160009054906101000a900473ffffffffffffffffffffffffffffffffffffffff1673ffffffffffffffffffffffffffffffffffffffff1673ffffffffffffffffffffffffffffffffffffffff168152505090508281610180018190525081816101c0018190525080600085604051610ed791906151b1565b90815260200160405180910390206000820151816000019080519060200190610f01929190614998565b506020820151816001019080519060200190610f1e929190614998565b506040820151816002019080519060200190610f3b929190614998565b506060820151816003019080519060200190610f58929190614998565b506080820151816004019080519060200190610f75929190614998565b5060a0820151816005019080519060200190610f92929190614998565b5060c0820151816006019080519060200190610faf929190614998565b5060e0820151816007019080519060200190610fcc929190614998565b50610100820151816008019080519060200190610fea929190614998565b50610120820151816009019080519060200190611008929190614998565b5061014082015181600a019080519060200190611026929190614998565b5061016082015181600b019080519060200190611044929190614998565b5061018082015181600c019080519060200190611062929190614998565b506101a082015181600d019080519060200190611080929190614998565b506101c082015181600e01908051906020019061109e929190614998565b506101e082015181600f0160006101000a81548173ffffffffffffffffffffffffffffffffffffffff021916908373ffffffffffffffffffffffffffffffffffffffff1602179055509050507fed50b982acccc0614eb35555b128f45780b427c548ae3445430a69e3e0ed0af0816101800151826101c00151604051611125929190615258565b60405180910390a150505050565b60008260405161114391906151b1565b9081526020016040518091039020600f0160009054906101000a900473ffffffffffffffffffffffffffffffffffffffff1673ffffffffffffffffffffffffffffffffffffffff163373ffffffffffffffffffffffffffffffffffffffff16146111ac57600080fd5b6111b4614905565b6000836040516111c491906151b1565b908152602001604051809103902060405180610200016040529081600082018054600181600116156101000203166002900480601f0160208091040260200160405190810160405280929190818152602001828054600181600116156101000203166002900480156112775780601f1061124c57610100808354040283529160200191611277565b820191906000526020600020905b81548152906001019060200180831161125a57829003601f168201915b50505050508152602001600182018054600181600116156101000203166002900480601f0160208091040260200160405190810160405280929190818152602001828054600181600116156101000203166002900480156113195780601f106112ee57610100808354040283529160200191611319565b820191906000526020600020905b8154815290600101906020018083116112fc57829003601f168201915b50505050508152602001600282018054600181600116156101000203166002900480601f0160208091040260200160405190810160405280929190818152602001828054600181600116156101000203166002900480156113bb5780601f10611390576101008083540402835291602001916113bb565b820191906000526020600020905b81548152906001019060200180831161139e57829003601f168201915b50505050508152602001600382018054600181600116156101000203166002900480601f01602080910402602001604051908101604052809291908181526020018280546001816001161561010002031660029004801561145d5780601f106114325761010080835404028352916020019161145d565b820191906000526020600020905b81548152906001019060200180831161144057829003601f168201915b50505050508152602001600482018054600181600116156101000203166002900480601f0160208091040260200160405190810160405280929190818152602001828054600181600116156101000203166002900480156114ff5780601f106114d4576101008083540402835291602001916114ff565b820191906000526020600020905b8154815290600101906020018083116114e257829003601f168201915b50505050508152602001600582018054600181600116156101000203166002900480601f0160208091040260200160405190810160405280929190818152602001828054600181600116156101000203166002900480156115a15780601f10611576576101008083540402835291602001916115a1565b820191906000526020600020905b81548152906001019060200180831161158457829003601f168201915b50505050508152602001600682018054600181600116156101000203166002900480601f0160208091040260200160405190810160405280929190818152602001828054600181600116156101000203166002900480156116435780601f1061161857610100808354040283529160200191611643565b820191906000526020600020905b81548152906001019060200180831161162657829003601f168201915b50505050508152602001600782018054600181600116156101000203166002900480601f0160208091040260200160405190810160405280929190818152602001828054600181600116156101000203166002900480156116e55780601f106116ba576101008083540402835291602001916116e5565b820191906000526020600020905b8154815290600101906020018083116116c857829003601f168201915b50505050508152602001600882018054600181600116156101000203166002900480601f0160208091040260200160405190810160405280929190818152602001828054600181600116156101000203166002900480156117875780601f1061175c57610100808354040283529160200191611787565b820191906000526020600020905b81548152906001019060200180831161176a57829003601f168201915b50505050508152602001600982018054600181600116156101000203166002900480601f0160208091040260200160405190810160405280929190818152602001828054600181600116156101000203166002900480156118295780601f106117fe57610100808354040283529160200191611829565b820191906000526020600020905b81548152906001019060200180831161180c57829003601f168201915b50505050508152602001600a82018054600181600116156101000203166002900480601f0160208091040260200160405190810160405280929190818152602001828054600181600116156101000203166002900480156118cb5780601f106118a0576101008083540402835291602001916118cb565b820191906000526020600020905b8154815290600101906020018083116118ae57829003601f168201915b50505050508152602001600b82018054600181600116156101000203166002900480601f01602080910402602001604051908101604052809291908181526020018280546001816001161561010002031660029004801561196d5780601f106119425761010080835404028352916020019161196d565b820191906000526020600020905b81548152906001019060200180831161195057829003601f168201915b50505050508152602001600c82018054600181600116156101000203166002900480601f016020809104026020016040519081016040528092919081815260200182805460018160011615610100020316600290048015611a0f5780601f106119e457610100808354040283529160200191611a0f565b820191906000526020600020905b8154815290600101906020018083116119f257829003601f168201915b50505050508152602001600d82018054600181600116156101000203166002900480601f016020809104026020016040519081016040528092919081815260200182805460018160011615610100020316600290048015611ab15780601f10611a8657610100808354040283529160200191611ab1565b820191906000526020600020905b815481529060010190602001808311611a9457829003601f168201915b50505050508152602001600e82018054600181600116156101000203166002900480601f016020809104026020016040519081016040528092919081815260200182805460018160011615610100020316600290048015611b535780601f10611b2857610100808354040283529160200191611b53565b820191906000526020600020905b815481529060010190602001808311611b3657829003601f168201915b50505050508152602001600f820160009054906101000a900473ffffffffffffffffffffffffffffffffffffffff1673ffffffffffffffffffffffffffffffffffffffff1673ffffffffffffffffffffffffffffffffffffffff1681525050905081816101a0018190525080600084604051611bcf91906151b1565b90815260200160405180910390206000820151816000019080519060200190611bf9929190614998565b506020820151816001019080519060200190611c16929190614998565b506040820151816002019080519060200190611c33929190614998565b506060820151816003019080519060200190611c50929190614998565b506080820151816004019080519060200190611c6d929190614998565b5060a0820151816005019080519060200190611c8a929190614998565b5060c0820151816006019080519060200190611ca7929190614998565b5060e0820151816007019080519060200190611cc4929190614998565b50610100820151816008019080519060200190611ce2929190614998565b50610120820151816009019080519060200190611d00929190614998565b5061014082015181600a019080519060200190611d1e929190614998565b5061016082015181600b019080519060200190611d3c929190614998565b5061018082015181600c019080519060200190611d5a929190614998565b506101a082015181600d019080519060200190611d78929190614998565b506101c082015181600e019080519060200190611d96929190614998565b506101e082015181600f0160006101000a81548173ffffffffffffffffffffffffffffffffffffffff021916908373ffffffffffffffffffffffffffffffffffffffff160217905550905050505050565b611def614905565b600082604051611dff91906151b1565b9081526020016040518091039020600f0160009054906101000a900473ffffffffffffffffffffffffffffffffffffffff1673ffffffffffffffffffffffffffffffffffffffff163373ffffffffffffffffffffffffffffffffffffffff1614611e6857600080fd5b600082604051611e7891906151b1565b908152602001604051809103902060405180610200016040529081600082018054600181600116156101000203166002900480601f016020809104026020016040519081016040528092919081815260200182805460018160011615610100020316600290048015611f2b5780601f10611f0057610100808354040283529160200191611f2b565b820191906000526020600020905b815481529060010190602001808311611f0e57829003601f168201915b50505050508152602001600182018054600181600116156101000203166002900480601f016020809104026020016040519081016040528092919081815260200182805460018160011615610100020316600290048015611fcd5780601f10611fa257610100808354040283529160200191611fcd565b820191906000526020600020905b815481529060010190602001808311611fb057829003601f168201915b50505050508152602001600282018054600181600116156101000203166002900480601f01602080910402602001604051908101604052809291908181526020018280546001816001161561010002031660029004801561206f5780601f106120445761010080835404028352916020019161206f565b820191906000526020600020905b81548152906001019060200180831161205257829003601f168201915b50505050508152602001600382018054600181600116156101000203166002900480601f0160208091040260200160405190810160405280929190818152602001828054600181600116156101000203166002900480156121115780601f106120e657610100808354040283529160200191612111565b820191906000526020600020905b8154815290600101906020018083116120f457829003601f168201915b50505050508152602001600482018054600181600116156101000203166002900480601f0160208091040260200160405190810160405280929190818152602001828054600181600116156101000203166002900480156121b35780601f10612188576101008083540402835291602001916121b3565b820191906000526020600020905b81548152906001019060200180831161219657829003601f168201915b50505050508152602001600582018054600181600116156101000203166002900480601f0160208091040260200160405190810160405280929190818152602001828054600181600116156101000203166002900480156122555780601f1061222a57610100808354040283529160200191612255565b820191906000526020600020905b81548152906001019060200180831161223857829003601f168201915b50505050508152602001600682018054600181600116156101000203166002900480601f0160208091040260200160405190810160405280929190818152602001828054600181600116156101000203166002900480156122f75780601f106122cc576101008083540402835291602001916122f7565b820191906000526020600020905b8154815290600101906020018083116122da57829003601f168201915b50505050508152602001600782018054600181600116156101000203166002900480601f0160208091040260200160405190810160405280929190818152602001828054600181600116156101000203166002900480156123995780601f1061236e57610100808354040283529160200191612399565b820191906000526020600020905b81548152906001019060200180831161237c57829003601f168201915b50505050508152602001600882018054600181600116156101000203166002900480601f01602080910402602001604051908101604052809291908181526020018280546001816001161561010002031660029004801561243b5780601f106124105761010080835404028352916020019161243b565b820191906000526020600020905b81548152906001019060200180831161241e57829003601f168201915b50505050508152602001600982018054600181600116156101000203166002900480601f0160208091040260200160405190810160405280929190818152602001828054600181600116156101000203166002900480156124dd5780601f106124b2576101008083540402835291602001916124dd565b820191906000526020600020905b8154815290600101906020018083116124c057829003601f168201915b50505050508152602001600a82018054600181600116156101000203166002900480601f01602080910402602001604051908101604052809291908181526020018280546001816001161561010002031660029004801561257f5780601f106125545761010080835404028352916020019161257f565b820191906000526020600020905b81548152906001019060200180831161256257829003601f168201915b50505050508152602001600b82018054600181600116156101000203166002900480601f0160208091040260200160405190810160405280929190818152602001828054600181600116156101000203166002900480156126215780601f106125f657610100808354040283529160200191612621565b820191906000526020600020905b81548152906001019060200180831161260457829003601f168201915b50505050508152602001600c82018054600181600116156101000203166002900480601f0160208091040260200160405190810160405280929190818152602001828054600181600116156101000203166002900480156126c35780601f10612698576101008083540402835291602001916126c3565b820191906000526020600020905b8154815290600101906020018083116126a657829003601f168201915b50505050508152602001600d82018054600181600116156101000203166002900480601f0160208091040260200160405190810160405280929190818152602001828054600181600116156101000203166002900480156127655780601f1061273a57610100808354040283529160200191612765565b820191906000526020600020905b81548152906001019060200180831161274857829003601f168201915b50505050508152602001600e82018054600181600116156101000203166002900480601f0160208091040260200160405190810160405280929190818152602001828054600181600116156101000203166002900480156128075780601f106127dc57610100808354040283529160200191612807565b820191906000526020600020905b8154815290600101906020018083116127ea57829003601f168201915b50505050508152602001600f820160009054906101000a900473ffffffffffffffffffffffffffffffffffffffff1673ffffffffffffffffffffffffffffffffffffffff1673ffffffffffffffffffffffffffffffffffffffff16815250509050919050565b60008360405161287d91906151b1565b9081526020016040518091039020600f0160009054906101000a900473ffffffffffffffffffffffffffffffffffffffff1673ffffffffffffffffffffffffffffffffffffffff163373ffffffffffffffffffffffffffffffffffffffff16146128e657600080fd5b73a79802199a381b3fcd2bd06c84795627607a7e8373ffffffffffffffffffffffffffffffffffffffff168273ffffffffffffffffffffffffffffffffffffffff1614806129735750736ac459937a1d1fc58b3f8c615153d91e75106d4873ffffffffffffffffffffffffffffffffffffffff168273ffffffffffffffffffffffffffffffffffffffff16145b806129bd575073a1b0e0b3a4e8b4e6c897b3fa8ec0a22f8927209473ffffffffffffffffffffffffffffffffffffffff168273ffffffffffffffffffffffffffffffffffffffff16145b6129c657600080fd5b8073ffffffffffffffffffffffffffffffffffffffff166108fc349081150290604051600060405180830381858888f19350505050158015612a0c573d6000803e3d6000fd5b507fdc92214c02e832ff1fedea5e075e3d6b571d1dd6897b9fe1ac3386a223db9eea8282604051612a3e9291906151c8565b60405180910390a1505050565b60011515600183604051612a5f91906151b1565b908152602001604051809103902060009054906101000a900460ff16151514612a8757600080fd5b73a79802199a381b3fcd2bd06c84795627607a7e8373ffffffffffffffffffffffffffffffffffffffff163373ffffffffffffffffffffffffffffffffffffffff161480612b145750736ac459937a1d1fc58b3f8c615153d91e75106d4873ffffffffffffffffffffffffffffffffffffffff163373ffffffffffffffffffffffffffffffffffffffff16145b80612b5e575073a1b0e0b3a4e8b4e6c897b3fa8ec0a22f8927209473ffffffffffffffffffffffffffffffffffffffff163373ffffffffffffffffffffffffffffffffffffffff16145b612b6757600080fd5b7f7830aa124594c3600e99999f0edccf2dbe1f6d8f8d7e10f0cd51271805ab379f838383604051612b9a939291906151f1565b60405180910390a1505050565b600084604051612bb791906151b1565b9081526020016040518091039020600f0160009054906101000a900473ffffffffffffffffffffffffffffffffffffffff1673ffffffffffffffffffffffffffffffffffffffff163373ffffffffffffffffffffffffffffffffffffffff1614612c2057600080fd5b612c28614905565b600085604051612c3891906151b1565b908152602001604051809103902060405180610200016040529081600082018054600181600116156101000203166002900480601f016020809104026020016040519081016040528092919081815260200182805460018160011615610100020316600290048015612ceb5780601f10612cc057610100808354040283529160200191612ceb565b820191906000526020600020905b815481529060010190602001808311612cce57829003601f168201915b50505050508152602001600182018054600181600116156101000203166002900480601f016020809104026020016040519081016040528092919081815260200182805460018160011615610100020316600290048015612d8d5780601f10612d6257610100808354040283529160200191612d8d565b820191906000526020600020905b815481529060010190602001808311612d7057829003601f168201915b50505050508152602001600282018054600181600116156101000203166002900480601f016020809104026020016040519081016040528092919081815260200182805460018160011615610100020316600290048015612e2f5780601f10612e0457610100808354040283529160200191612e2f565b820191906000526020600020905b815481529060010190602001808311612e1257829003601f168201915b50505050508152602001600382018054600181600116156101000203166002900480601f016020809104026020016040519081016040528092919081815260200182805460018160011615610100020316600290048015612ed15780601f10612ea657610100808354040283529160200191612ed1565b820191906000526020600020905b815481529060010190602001808311612eb457829003601f168201915b50505050508152602001600482018054600181600116156101000203166002900480601f016020809104026020016040519081016040528092919081815260200182805460018160011615610100020316600290048015612f735780601f10612f4857610100808354040283529160200191612f73565b820191906000526020600020905b815481529060010190602001808311612f5657829003601f168201915b50505050508152602001600582018054600181600116156101000203166002900480601f0160208091040260200160405190810160405280929190818152602001828054600181600116156101000203166002900480156130155780601f10612fea57610100808354040283529160200191613015565b820191906000526020600020905b815481529060010190602001808311612ff857829003601f168201915b50505050508152602001600682018054600181600116156101000203166002900480601f0160208091040260200160405190810160405280929190818152602001828054600181600116156101000203166002900480156130b75780601f1061308c576101008083540402835291602001916130b7565b820191906000526020600020905b81548152906001019060200180831161309a57829003601f168201915b50505050508152602001600782018054600181600116156101000203166002900480601f0160208091040260200160405190810160405280929190818152602001828054600181600116156101000203166002900480156131595780601f1061312e57610100808354040283529160200191613159565b820191906000526020600020905b81548152906001019060200180831161313c57829003601f168201915b50505050508152602001600882018054600181600116156101000203166002900480601f0160208091040260200160405190810160405280929190818152602001828054600181600116156101000203166002900480156131fb5780601f106131d0576101008083540402835291602001916131fb565b820191906000526020600020905b8154815290600101906020018083116131de57829003601f168201915b50505050508152602001600982018054600181600116156101000203166002900480601f01602080910402602001604051908101604052809291908181526020018280546001816001161561010002031660029004801561329d5780601f106132725761010080835404028352916020019161329d565b820191906000526020600020905b81548152906001019060200180831161328057829003601f168201915b50505050508152602001600a82018054600181600116156101000203166002900480601f01602080910402602001604051908101604052809291908181526020018280546001816001161561010002031660029004801561333f5780601f106133145761010080835404028352916020019161333f565b820191906000526020600020905b81548152906001019060200180831161332257829003601f168201915b50505050508152602001600b82018054600181600116156101000203166002900480601f0160208091040260200160405190810160405280929190818152602001828054600181600116156101000203166002900480156133e15780601f106133b6576101008083540402835291602001916133e1565b820191906000526020600020905b8154815290600101906020018083116133c457829003601f168201915b50505050508152602001600c82018054600181600116156101000203166002900480601f0160208091040260200160405190810160405280929190818152602001828054600181600116156101000203166002900480156134835780601f1061345857610100808354040283529160200191613483565b820191906000526020600020905b81548152906001019060200180831161346657829003601f168201915b50505050508152602001600d82018054600181600116156101000203166002900480601f0160208091040260200160405190810160405280929190818152602001828054600181600116156101000203166002900480156135255780601f106134fa57610100808354040283529160200191613525565b820191906000526020600020905b81548152906001019060200180831161350857829003601f168201915b50505050508152602001600e82018054600181600116156101000203166002900480601f0160208091040260200160405190810160405280929190818152602001828054600181600116156101000203166002900480156135c75780601f1061359c576101008083540402835291602001916135c7565b820191906000526020600020905b8154815290600101906020018083116135aa57829003601f168201915b50505050508152602001600f820160009054906101000a900473ffffffffffffffffffffffffffffffffffffffff1673ffffffffffffffffffffffffffffffffffffffff1673ffffffffffffffffffffffffffffffffffffffff168152505090508381610120018190525082816101400181905250818161016001819052508060008660405161365791906151b1565b90815260200160405180910390206000820151816000019080519060200190613681929190614998565b50602082015181600101908051906020019061369e929190614998565b5060408201518160020190805190602001906136bb929190614998565b5060608201518160030190805190602001906136d8929190614998565b5060808201518160040190805190602001906136f5929190614998565b5060a0820151816005019080519060200190613712929190614998565b5060c082015181600601908051906020019061372f929190614998565b5060e082015181600701908051906020019061374c929190614998565b5061010082015181600801908051906020019061376a929190614998565b50610120820151816009019080519060200190613788929190614998565b5061014082015181600a0190805190602001906137a6929190614998565b5061016082015181600b0190805190602001906137c4929190614998565b5061018082015181600c0190805190602001906137e2929190614998565b506101a082015181600d019080519060200190613800929190614998565b506101c082015181600e01908051906020019061381e929190614998565b506101e082015181600f0160006101000a81548173ffffffffffffffffffffffffffffffffffffffff021916908373ffffffffffffffffffffffffffffffffffffffff1602179055509050507ff636f836107f58d31ae897e366e0bbfd3afdd898497378853db19e02aa1dfeb78161012001518261014001518361016001516040516138ac9392919061528f565b60405180910390a15050505050565b6138c3614905565b878160000181905250868160200181905250858160400181905250848160600181905250838160800181905250828160a00181905250818160c0018190525033816101e0019073ffffffffffffffffffffffffffffffffffffffff16908173ffffffffffffffffffffffffffffffffffffffff16815250508060008960405161394c91906151b1565b90815260200160405180910390206000820151816000019080519060200190613976929190614998565b506020820151816001019080519060200190613993929190614998565b5060408201518160020190805190602001906139b0929190614998565b5060608201518160030190805190602001906139cd929190614998565b5060808201518160040190805190602001906139ea929190614998565b5060a0820151816005019080519060200190613a07929190614998565b5060c0820151816006019080519060200190613a24929190614998565b5060e0820151816007019080519060200190613a41929190614998565b50610100820151816008019080519060200190613a5f929190614998565b50610120820151816009019080519060200190613a7d929190614998565b5061014082015181600a019080519060200190613a9b929190614998565b5061016082015181600b019080519060200190613ab9929190614998565b5061018082015181600c019080519060200190613ad7929190614998565b506101a082015181600d019080519060200190613af5929190614998565b506101c082015181600e019080519060200190613b13929190614998565b506101e082015181600f0160006101000a81548173ffffffffffffffffffffffffffffffffffffffff021916908373ffffffffffffffffffffffffffffffffffffffff16021790555090505060018089604051613b7091906151b1565b908152602001604051809103902060006101000a81548160ff0219169083151502179055507f52241762270360a333f3cbe4f75071e490a87739c294a6be5ec77822a39aa95d816000015182602001518360400151846060015185608001518660a001518760c00151886101e00151604051613bf39897969594939291906152db565b60405180910390a15050505050505050565b600083604051613c1591906151b1565b9081526020016040518091039020600f0160009054906101000a900473ffffffffffffffffffffffffffffffffffffffff1673ffffffffffffffffffffffffffffffffffffffff163373ffffffffffffffffffffffffffffffffffffffff1614613c7e57600080fd5b613c86614905565b600084604051613c9691906151b1565b908152602001604051809103902060405180610200016040529081600082018054600181600116156101000203166002900480601f016020809104026020016040519081016040528092919081815260200182805460018160011615610100020316600290048015613d495780601f10613d1e57610100808354040283529160200191613d49565b820191906000526020600020905b815481529060010190602001808311613d2c57829003601f168201915b50505050508152602001600182018054600181600116156101000203166002900480601f016020809104026020016040519081016040528092919081815260200182805460018160011615610100020316600290048015613deb5780601f10613dc057610100808354040283529160200191613deb565b820191906000526020600020905b815481529060010190602001808311613dce57829003601f168201915b50505050508152602001600282018054600181600116156101000203166002900480601f016020809104026020016040519081016040528092919081815260200182805460018160011615610100020316600290048015613e8d5780601f10613e6257610100808354040283529160200191613e8d565b820191906000526020600020905b815481529060010190602001808311613e7057829003601f168201915b50505050508152602001600382018054600181600116156101000203166002900480601f016020809104026020016040519081016040528092919081815260200182805460018160011615610100020316600290048015613f2f5780601f10613f0457610100808354040283529160200191613f2f565b820191906000526020600020905b815481529060010190602001808311613f1257829003601f168201915b50505050508152602001600482018054600181600116156101000203166002900480601f016020809104026020016040519081016040528092919081815260200182805460018160011615610100020316600290048015613fd15780601f10613fa657610100808354040283529160200191613fd1565b820191906000526020600020905b815481529060010190602001808311613fb457829003601f168201915b50505050508152602001600582018054600181600116156101000203166002900480601f0160208091040260200160405190810160405280929190818152602001828054600181600116156101000203166002900480156140735780601f1061404857610100808354040283529160200191614073565b820191906000526020600020905b81548152906001019060200180831161405657829003601f168201915b50505050508152602001600682018054600181600116156101000203166002900480601f0160208091040260200160405190810160405280929190818152602001828054600181600116156101000203166002900480156141155780601f106140ea57610100808354040283529160200191614115565b820191906000526020600020905b8154815290600101906020018083116140f857829003601f168201915b50505050508152602001600782018054600181600116156101000203166002900480601f0160208091040260200160405190810160405280929190818152602001828054600181600116156101000203166002900480156141b75780601f1061418c576101008083540402835291602001916141b7565b820191906000526020600020905b81548152906001019060200180831161419a57829003601f168201915b50505050508152602001600882018054600181600116156101000203166002900480601f0160208091040260200160405190810160405280929190818152602001828054600181600116156101000203166002900480156142595780601f1061422e57610100808354040283529160200191614259565b820191906000526020600020905b81548152906001019060200180831161423c57829003601f168201915b50505050508152602001600982018054600181600116156101000203166002900480601f0160208091040260200160405190810160405280929190818152602001828054600181600116156101000203166002900480156142fb5780601f106142d0576101008083540402835291602001916142fb565b820191906000526020600020905b8154815290600101906020018083116142de57829003601f168201915b50505050508152602001600a82018054600181600116156101000203166002900480601f01602080910402602001604051908101604052809291908181526020018280546001816001161561010002031660029004801561439d5780601f106143725761010080835404028352916020019161439d565b820191906000526020600020905b81548152906001019060200180831161438057829003601f168201915b50505050508152602001600b82018054600181600116156101000203166002900480601f01602080910402602001604051908101604052809291908181526020018280546001816001161561010002031660029004801561443f5780601f106144145761010080835404028352916020019161443f565b820191906000526020600020905b81548152906001019060200180831161442257829003601f168201915b50505050508152602001600c82018054600181600116156101000203166002900480601f0160208091040260200160405190810160405280929190818152602001828054600181600116156101000203166002900480156144e15780601f106144b6576101008083540402835291602001916144e1565b820191906000526020600020905b8154815290600101906020018083116144c457829003601f168201915b50505050508152602001600d82018054600181600116156101000203166002900480601f0160208091040260200160405190810160405280929190818152602001828054600181600116156101000203166002900480156145835780601f1061455857610100808354040283529160200191614583565b820191906000526020600020905b81548152906001019060200180831161456657829003601f168201915b50505050508152602001600e82018054600181600116156101000203166002900480601f0160208091040260200160405190810160405280929190818152602001828054600181600116156101000203166002900480156146255780601f106145fa57610100808354040283529160200191614625565b820191906000526020600020905b81548152906001019060200180831161460857829003601f168201915b50505050508152602001600f820160009054906101000a900473ffffffffffffffffffffffffffffffffffffffff1673ffffffffffffffffffffffffffffffffffffffff1673ffffffffffffffffffffffffffffffffffffffff16815250509050828160e0018190525081816101000181905250806000856040516146aa91906151b1565b908152602001604051809103902060008201518160000190805190602001906146d4929190614998565b5060208201518160010190805190602001906146f1929190614998565b50604082015181600201908051906020019061470e929190614998565b50606082015181600301908051906020019061472b929190614998565b506080820151816004019080519060200190614748929190614998565b5060a0820151816005019080519060200190614765929190614998565b5060c0820151816006019080519060200190614782929190614998565b5060e082015181600701908051906020019061479f929190614998565b506101008201518160080190805190602001906147bd929190614998565b506101208201518160090190805190602001906147db929190614998565b5061014082015181600a0190805190602001906147f9929190614998565b5061016082015181600b019080519060200190614817929190614998565b5061018082015181600c019080519060200190614835929190614998565b506101a082015181600d019080519060200190614853929190614998565b506101c082015181600e019080519060200190614871929190614998565b506101e082015181600f0160006101000a81548173ffffffffffffffffffffffffffffffffffffffff021916908373ffffffffffffffffffffffffffffffffffffffff1602179055509050507f93d22701451c154b240a5fb07e3ea931e1af7745a783e9f897537cb18ac593ba8160e001518261010001516040516148f7929190615258565b60405180910390a150505050565b604051806102000160405280606081526020016060815260200160608152602001606081526020016060815260200160608152602001606081526020016060815260200160608152602001606081526020016060815260200160608152602001606081526020016060815260200160608152602001600073ffffffffffffffffffffffffffffffffffffffff1681525090565b828054600181600116156101000203166002900490600052602060002090601f016020900481019282601f106149d957805160ff1916838001178555614a07565b82800160010185558215614a07579182015b82811115614a065782518255916020019190600101906149eb565b5b509050614a149190614a18565b5090565b614a3a91905b80821115614a36576000816000905550600101614a1e565b5090565b90565b600081359050614a4c81615515565b92915050565b600081359050614a618161552c565b92915050565b600082601f830112614a7857600080fd5b8135614a8b614a86826153d9565b6153ac565b91508082526020830160208301858383011115614aa757600080fd5b614ab28382846154c2565b50505092915050565b600080600060608486031215614ad057600080fd5b6000614ade86828701614a3d565b935050602084013567ffffffffffffffff811115614afb57600080fd5b614b0786828701614a67565b925050604084013567ffffffffffffffff811115614b2457600080fd5b614b3086828701614a67565b9150509250925092565b600060208284031215614b4c57600080fd5b600082013567ffffffffffffffff811115614b6657600080fd5b614b7284828501614a67565b91505092915050565b600080600060608486031215614b9057600080fd5b600084013567ffffffffffffffff811115614baa57600080fd5b614bb686828701614a67565b9350506020614bc786828701614a52565b9250506040614bd886828701614a52565b9150509250925092565b60008060408385031215614bf557600080fd5b600083013567ffffffffffffffff811115614c0f57600080fd5b614c1b85828601614a67565b925050602083013567ffffffffffffffff811115614c3857600080fd5b614c4485828601614a67565b9150509250929050565b600080600060608486031215614c6357600080fd5b600084013567ffffffffffffffff811115614c7d57600080fd5b614c8986828701614a67565b935050602084013567ffffffffffffffff811115614ca657600080fd5b614cb286828701614a67565b925050604084013567ffffffffffffffff811115614ccf57600080fd5b614cdb86828701614a67565b9150509250925092565b60008060008060808587031215614cfb57600080fd5b600085013567ffffffffffffffff811115614d1557600080fd5b614d2187828801614a67565b945050602085013567ffffffffffffffff811115614d3e57600080fd5b614d4a87828801614a67565b935050604085013567ffffffffffffffff811115614d6757600080fd5b614d7387828801614a67565b925050606085013567ffffffffffffffff811115614d9057600080fd5b614d9c87828801614a67565b91505092959194509250565b600080600080600080600060e0888a031215614dc357600080fd5b600088013567ffffffffffffffff811115614ddd57600080fd5b614de98a828b01614a67565b975050602088013567ffffffffffffffff811115614e0657600080fd5b614e128a828b01614a67565b965050604088013567ffffffffffffffff811115614e2f57600080fd5b614e3b8a828b01614a67565b955050606088013567ffffffffffffffff811115614e5857600080fd5b614e648a828b01614a67565b945050608088013567ffffffffffffffff811115614e8157600080fd5b614e8d8a828b01614a67565b93505060a088013567ffffffffffffffff811115614eaa57600080fd5b614eb68a828b01614a67565b92505060c088013567ffffffffffffffff811115614ed357600080fd5b614edf8a828b01614a67565b91505092959891949750929550565b614ef78161548c565b82525050565b614f0681615448565b82525050565b614f1581615448565b82525050565b6000614f2682615410565b614f30818561542c565b9350614f408185602086016154d1565b614f4981615504565b840191505092915050565b6000614f5f82615410565b614f69818561543d565b9350614f798185602086016154d1565b80840191505092915050565b6000614f9082615405565b614f9a818561541b565b9350614faa8185602086016154d1565b614fb381615504565b840191505092915050565b6000614fc982615405565b614fd3818561542c565b9350614fe38185602086016154d1565b614fec81615504565b840191505092915050565b60006102008301600083015184820360008601526150158282614f85565b9150506020830151848203602086015261502f8282614f85565b915050604083015184820360408601526150498282614f85565b915050606083015184820360608601526150638282614f85565b9150506080830151848203608086015261507d8282614f85565b91505060a083015184820360a08601526150978282614f85565b91505060c083015184820360c08601526150b18282614f85565b91505060e083015184820360e08601526150cb8282614f85565b9150506101008301518482036101008601526150e78282614f85565b9150506101208301518482036101208601526151038282614f85565b91505061014083015184820361014086015261511f8282614f85565b91505061016083015184820361016086015261513b8282614f85565b9150506101808301518482036101808601526151578282614f85565b9150506101a08301518482036101a08601526151738282614f85565b9150506101c08301518482036101c086015261518f8282614f85565b9150506101e08301516151a66101e0860182614efd565b508091505092915050565b60006151bd8284614f54565b915081905092915050565b60006040820190506151dd6000830185614eee565b6151ea6020830184614eee565b9392505050565b60006060820190506152066000830186614f0c565b81810360208301526152188185614f1b565b9050818103604083015261522c8184614f1b565b9050949350505050565b600060208201905081810360008301526152508184614f1b565b905092915050565b600060408201905081810360008301526152728185614fbe565b905081810360208301526152868184614fbe565b90509392505050565b600060608201905081810360008301526152a98186614fbe565b905081810360208301526152bd8185614fbe565b905081810360408301526152d18184614fbe565b9050949350505050565b60006101008201905081810360008301526152f6818b614fbe565b9050818103602083015261530a818a614fbe565b9050818103604083015261531e8189614fbe565b905081810360608301526153328188614fbe565b905081810360808301526153468187614fbe565b905081810360a083015261535a8186614fbe565b905081810360c083015261536e8185614fbe565b905061537d60e0830184614f0c565b9998505050505050505050565b600060208201905081810360008301526153a48184614ff7565b905092915050565b6000604051905081810181811067ffffffffffffffff821117156153cf57600080fd5b8060405250919050565b600067ffffffffffffffff8211156153f057600080fd5b601f19601f8301169050602081019050919050565b600081519050919050565b600081519050919050565b600082825260208201905092915050565b600082825260208201905092915050565b600081905092915050565b60006154538261546c565b9050919050565b60006154658261546c565b9050919050565b600073ffffffffffffffffffffffffffffffffffffffff82169050919050565b60006154978261549e565b9050919050565b60006154a9826154b0565b9050919050565b60006154bb8261546c565b9050919050565b82818337600083830152505050565b60005b838110156154ef5780820151818401526020810190506154d4565b838111156154fe576000848401525b50505050565b6000601f19601f8301169050919050565b61551e81615448565b811461552957600080fd5b50565b6155358161545a565b811461554057600080fd5b5056fea365627a7a72315820feb24f100c128453f49e5f08c11d7c9f044aae1336c06b4fd16128a871d8644b6c6578706572696d656e74616cf564736f6c63430005100040",
  "source": "pragma solidity ^0.5.0;\r\npragma experimental ABIEncoderV2;\r\ncontract PiratesCatcher\r\n{\r\n    struct Movie\r\n    {\r\n        string id;\r\n        string name;\r\n        string director;\r\n        string writer;\r\n        string genre;\r\n        string language;\r\n        string country;\r\n        string coreidea;\r\n        string producer;\r\n        string cast;\r\n        string budget;\r\n        string shootlocation;\r\n        string shoothashes;\r\n        string siahash;\r\n        string shootdate;\r\n        address directoraddress;\r\n        //uint counter;\r\n    }  \r\n    mapping(string=>Movie) movies;\r\n    mapping(string=>bool) movielist;\r\n    uint counter;\r\n    event RegistrationDone(string id,string name,string director,string writer,string genre,string language,string country,address directoraddress);\r\n    event IdeationDone(string coreidea,string producer);\r\n    event Preproduction(string cast,string budget,string shootlocation);\r\n    event Production(string shoothash,string shootdate);\r\n    event FinalEditingDone(string siahash);\r\n    event CinemaTelecasted(address cinema,string id,string time);\r\n    event PirateReported(address piratecinema,address reporter);\r\n    //Movie m;\r\n    function register(string memory id,string memory name,string memory director,string memory writer,string memory genre,string memory language,string memory country) public\r\n    {\r\n        //director registers movie\r\n        Movie memory m;\r\n        m.id=id;\r\n        m.name=name;\r\n        m.director=director;\r\n        m.writer=writer;\r\n        m.genre=genre;\r\n        m.language=language;\r\n        m.country=country;\r\n        m.directoraddress=msg.sender;\r\n        //m.counter=0;\r\n        movies[id]=m;\r\n        movielist[id]=true;\r\n        emit RegistrationDone(m.id,m.name,m.director,m.writer,m.genre,m.language,m.country,m.directoraddress);\r\n    }\r\n    function ideation(string memory id,string memory coreidea,string memory producer) public\r\n    {\r\n        //director allowed\r\n        require(msg.sender==movies[id].directoraddress);\r\n        Movie memory m=movies[id];\r\n        m.coreidea=coreidea;\r\n        m.producer=producer;\r\n        movies[id]=m;\r\n        emit IdeationDone(m.coreidea,m.producer);\r\n    }\r\n    function preproduction(string memory id,string memory cast,string memory budget,string memory shootlocation)public\r\n    {\r\n        //director allowed\r\n        require(msg.sender==movies[id].directoraddress);\r\n        Movie memory m=movies[id];\r\n        m.cast=cast;\r\n        m.budget=budget;\r\n        m.shootlocation=shootlocation;\r\n        movies[id]=m;\r\n        emit Preproduction(m.cast,m.budget,m.shootlocation);\r\n    }\r\n    function productionshoot(string memory id,string memory ipfshashes,string memory shootdate)public \r\n    {\r\n        //director allowed\r\n        require(msg.sender==movies[id].directoraddress);\r\n        Movie memory m=movies[id];\r\n        m.shoothashes=ipfshashes;\r\n        //gethashes[m.counter]=ipfshash;\r\n        //m.counter=m.counter+1;\r\n        //m.shoothashes=gethashes;\r\n        m.shootdate=shootdate;\r\n        movies[id]=m;\r\n        emit Production(m.shoothashes,m.shootdate);\r\n    }\r\n    function finalediting(string memory id,string memory siahash)public \r\n    {\r\n        //director allowed\r\n        require(msg.sender==movies[id].directoraddress);\r\n        Movie memory m=movies[id];\r\n        m.siahash=siahash;\r\n        movies[id]=m;\r\n    }\r\n    function getmovie(string memory id)public view returns(Movie memory)\r\n    {\r\n        //director allowed\r\n        require(msg.sender==movies[id].directoraddress);\r\n        return movies[id];\r\n    }\r\n    function getmoviehash(string memory id)public view returns(string memory)\r\n    {\r\n        //director,3 cinemas allowed\r\n        require(msg.sender==movies[id].directoraddress || msg.sender==0xa79802199A381B3fcd2Bd06c84795627607A7E83 || msg.sender==0x6ac459937a1d1fc58b3f8C615153D91E75106D48 || msg.sender==0xA1B0e0b3a4E8b4E6C897b3fA8eC0a22F89272094);\r\n        return movies[id].siahash;\r\n    }\r\n    function reporterbounty(string memory id,address payable piratecinema,address payable reporter)public payable\r\n    {\r\n        //director allowed\r\n        require(msg.sender==movies[id].directoraddress);\r\n        require(piratecinema==0xa79802199A381B3fcd2Bd06c84795627607A7E83 || piratecinema==0x6ac459937a1d1fc58b3f8C615153D91E75106D48 || piratecinema==0xA1B0e0b3a4E8b4E6C897b3fA8eC0a22F89272094);\r\n        address(reporter).transfer(msg.value);\r\n        emit PirateReported(piratecinema,reporter);\r\n    }\r\n    function cinematelecasted(address cinema,string memory id,string memory time)public\r\n    {\r\n        //3 cinemas allowed\r\n        require(movielist[id]==true);\r\n        require(msg.sender==0xa79802199A381B3fcd2Bd06c84795627607A7E83 || msg.sender==0x6ac459937a1d1fc58b3f8C615153D91E75106D48 || msg.sender==0xA1B0e0b3a4E8b4E6C897b3fA8eC0a22F89272094);\r\n        emit CinemaTelecasted(cinema,id,time);\r\n    }\r\n   \r\n}",
  "sourcePath": "F:/TryTruffle/react-app/src/contracts/PiratesCatcher.sol",
  "compiler": {
    "name": "solc",
    "version": "0.5.16+commit.9c3226ce.Emscripten.clang"
  },
  "schemaVersion": "3.3.2",
  "updatedAt": "2020-12-17T10:35:39.760Z",
  "networkType": "ethereum",
  "devdoc": {
    "methods": {}
  },
  "userdoc": {
    "methods": {}
  }
}