{
  "contractName": "PiratesCatcher",
  "abi": [
    {
      "anonymous": false,
      "inputs": [
        {
          "indexed": false,
          "internalType": "address",
          "name": "cinema",
          "type": "address"
        },
        {
          "indexed": false,
          "internalType": "uint256",
          "name": "id",
          "type": "uint256"
        },
        {
          "indexed": false,
          "internalType": "string",
          "name": "time",
          "type": "string"
        }
      ],
      "name": "CinemaTelecasted",
      "type": "event"
    },
    {
      "anonymous": false,
      "inputs": [
        {
          "indexed": false,
          "internalType": "string",
          "name": "siahash",
          "type": "string"
        }
      ],
      "name": "FinalEditingDone",
      "type": "event"
    },
    {
      "anonymous": false,
      "inputs": [
        {
          "indexed": false,
          "internalType": "string",
          "name": "coreidea",
          "type": "string"
        },
        {
          "indexed": false,
          "internalType": "string",
          "name": "producer",
          "type": "string"
        }
      ],
      "name": "IdeationDone",
      "type": "event"
    },
    {
      "anonymous": false,
      "inputs": [
        {
          "indexed": false,
          "internalType": "address",
          "name": "piratecinema",
          "type": "address"
        },
        {
          "indexed": false,
          "internalType": "address",
          "name": "reporter",
          "type": "address"
        }
      ],
      "name": "PirateReported",
      "type": "event"
    },
    {
      "anonymous": false,
      "inputs": [
        {
          "indexed": false,
          "internalType": "string",
          "name": "cast",
          "type": "string"
        },
        {
          "indexed": false,
          "internalType": "string",
          "name": "budget",
          "type": "string"
        },
        {
          "indexed": false,
          "internalType": "string",
          "name": "shootlocation",
          "type": "string"
        }
      ],
      "name": "Preproduction",
      "type": "event"
    },
    {
      "anonymous": false,
      "inputs": [
        {
          "indexed": false,
          "internalType": "string",
          "name": "shoothash",
          "type": "string"
        },
        {
          "indexed": false,
          "internalType": "string",
          "name": "shootdate",
          "type": "string"
        }
      ],
      "name": "Production",
      "type": "event"
    },
    {
      "anonymous": false,
      "inputs": [
        {
          "indexed": false,
          "internalType": "uint256",
          "name": "id",
          "type": "uint256"
        },
        {
          "indexed": false,
          "internalType": "string",
          "name": "name",
          "type": "string"
        },
        {
          "indexed": false,
          "internalType": "string",
          "name": "director",
          "type": "string"
        },
        {
          "indexed": false,
          "internalType": "string",
          "name": "writer",
          "type": "string"
        },
        {
          "indexed": false,
          "internalType": "string",
          "name": "genre",
          "type": "string"
        },
        {
          "indexed": false,
          "internalType": "string",
          "name": "language",
          "type": "string"
        },
        {
          "indexed": false,
          "internalType": "string",
          "name": "country",
          "type": "string"
        },
        {
          "indexed": false,
          "internalType": "address",
          "name": "directoraddress",
          "type": "address"
        }
      ],
      "name": "RegistrationDone",
      "type": "event"
    },
    {
      "constant": true,
      "inputs": [],
      "name": "counter",
      "outputs": [
        {
          "internalType": "uint256",
          "name": "",
          "type": "uint256"
        }
      ],
      "payable": false,
      "stateMutability": "view",
      "type": "function"
    },
    {
      "constant": true,
      "inputs": [],
      "name": "requestcounter",
      "outputs": [
        {
          "internalType": "uint256",
          "name": "",
          "type": "uint256"
        }
      ],
      "payable": false,
      "stateMutability": "view",
      "type": "function"
    },
    {
      "constant": false,
      "inputs": [
        {
          "internalType": "string",
          "name": "name",
          "type": "string"
        },
        {
          "internalType": "string",
          "name": "director",
          "type": "string"
        },
        {
          "internalType": "string",
          "name": "writer",
          "type": "string"
        },
        {
          "internalType": "string",
          "name": "genre",
          "type": "string"
        },
        {
          "internalType": "string",
          "name": "language",
          "type": "string"
        },
        {
          "internalType": "string",
          "name": "country",
          "type": "string"
        }
      ],
      "name": "register",
      "outputs": [],
      "payable": false,
      "stateMutability": "nonpayable",
      "type": "function"
    },
    {
      "constant": false,
      "inputs": [
        {
          "internalType": "uint256",
          "name": "id",
          "type": "uint256"
        },
        {
          "internalType": "string",
          "name": "coreidea",
          "type": "string"
        },
        {
          "internalType": "string",
          "name": "producer",
          "type": "string"
        }
      ],
      "name": "ideation",
      "outputs": [],
      "payable": false,
      "stateMutability": "nonpayable",
      "type": "function"
    },
    {
      "constant": false,
      "inputs": [
        {
          "internalType": "uint256",
          "name": "id",
          "type": "uint256"
        },
        {
          "internalType": "string",
          "name": "cast",
          "type": "string"
        },
        {
          "internalType": "string",
          "name": "budget",
          "type": "string"
        },
        {
          "internalType": "string",
          "name": "shootlocation",
          "type": "string"
        }
      ],
      "name": "preproduction",
      "outputs": [],
      "payable": false,
      "stateMutability": "nonpayable",
      "type": "function"
    },
    {
      "constant": false,
      "inputs": [
        {
          "internalType": "uint256",
          "name": "id",
          "type": "uint256"
        },
        {
          "internalType": "string",
          "name": "ipfshashes",
          "type": "string"
        },
        {
          "internalType": "string",
          "name": "shootdate",
          "type": "string"
        }
      ],
      "name": "productionshoot",
      "outputs": [],
      "payable": false,
      "stateMutability": "nonpayable",
      "type": "function"
    },
    {
      "constant": false,
      "inputs": [
        {
          "internalType": "uint256",
          "name": "id",
          "type": "uint256"
        },
        {
          "internalType": "string",
          "name": "siahash",
          "type": "string"
        }
      ],
      "name": "finalediting",
      "outputs": [],
      "payable": false,
      "stateMutability": "nonpayable",
      "type": "function"
    },
    {
      "constant": true,
      "inputs": [
        {
          "internalType": "uint256",
          "name": "id",
          "type": "uint256"
        }
      ],
      "name": "getmovie",
      "outputs": [
        {
          "components": [
            {
              "internalType": "uint256",
              "name": "id",
              "type": "uint256"
            },
            {
              "internalType": "string",
              "name": "name",
              "type": "string"
            },
            {
              "internalType": "string",
              "name": "director",
              "type": "string"
            },
            {
              "internalType": "string",
              "name": "writer",
              "type": "string"
            },
            {
              "internalType": "string",
              "name": "genre",
              "type": "string"
            },
            {
              "internalType": "string",
              "name": "language",
              "type": "string"
            },
            {
              "internalType": "string",
              "name": "country",
              "type": "string"
            },
            {
              "internalType": "string",
              "name": "coreidea",
              "type": "string"
            },
            {
              "internalType": "string",
              "name": "producer",
              "type": "string"
            },
            {
              "internalType": "string",
              "name": "cast",
              "type": "string"
            },
            {
              "internalType": "string",
              "name": "budget",
              "type": "string"
            },
            {
              "internalType": "string",
              "name": "shootlocation",
              "type": "string"
            },
            {
              "internalType": "string",
              "name": "shoothashes",
              "type": "string"
            },
            {
              "internalType": "string",
              "name": "siahash",
              "type": "string"
            },
            {
              "internalType": "string",
              "name": "shootdate",
              "type": "string"
            },
            {
              "internalType": "address",
              "name": "directoraddress",
              "type": "address"
            }
          ],
          "internalType": "struct PiratesCatcher.Movie",
          "name": "",
          "type": "tuple"
        }
      ],
      "payable": false,
      "stateMutability": "view",
      "type": "function"
    },
    {
      "constant": true,
      "inputs": [
        {
          "internalType": "uint256",
          "name": "id",
          "type": "uint256"
        }
      ],
      "name": "getmoviehash",
      "outputs": [
        {
          "internalType": "string",
          "name": "",
          "type": "string"
        }
      ],
      "payable": false,
      "stateMutability": "view",
      "type": "function"
    },
    {
      "constant": false,
      "inputs": [
        {
          "internalType": "address payable",
          "name": "piratecinema",
          "type": "address"
        },
        {
          "internalType": "address payable",
          "name": "reporter",
          "type": "address"
        },
        {
          "internalType": "uint256",
          "name": "requestid",
          "type": "uint256"
        }
      ],
      "name": "reporterbounty",
      "outputs": [],
      "payable": true,
      "stateMutability": "payable",
      "type": "function"
    },
    {
      "constant": false,
      "inputs": [
        {
          "internalType": "address",
          "name": "reporter",
          "type": "address"
        },
        {
          "internalType": "string",
          "name": "movielink",
          "type": "string"
        }
      ],
      "name": "addReporter",
      "outputs": [],
      "payable": false,
      "stateMutability": "nonpayable",
      "type": "function"
    },
    {
      "constant": true,
      "inputs": [
        {
          "internalType": "uint256",
          "name": "key",
          "type": "uint256"
        }
      ],
      "name": "getreporterrequest",
      "outputs": [
        {
          "components": [
            {
              "internalType": "address",
              "name": "reporter",
              "type": "address"
            },
            {
              "internalType": "uint256",
              "name": "id",
              "type": "uint256"
            },
            {
              "internalType": "string",
              "name": "movielink",
              "type": "string"
            },
            {
              "internalType": "bool",
              "name": "fulfill",
              "type": "bool"
            }
          ],
          "internalType": "struct PiratesCatcher.Request",
          "name": "",
          "type": "tuple"
        }
      ],
      "payable": false,
      "stateMutability": "view",
      "type": "function"
    },
    {
      "constant": false,
      "inputs": [
        {
          "internalType": "address",
          "name": "cinema",
          "type": "address"
        },
        {
          "internalType": "uint256",
          "name": "id",
          "type": "uint256"
        },
        {
          "internalType": "string",
          "name": "time",
          "type": "string"
        }
      ],
      "name": "cinematelecasted",
      "outputs": [],
      "payable": false,
      "stateMutability": "nonpayable",
      "type": "function"
    }
  ],
  "bytecode": "0x60806040526001600355600060045534801561001a57600080fd5b506153be8061002a6000396000f3fe6080604052600436106100c25760003560e01c806361075c321161007f578063902d32ca11610059578063902d32ca146102645780639e582c811461028d578063c66618f3146102a9578063e85d9838146102e6576100c2565b806361075c32146101d357806361bc221a1461021057806380dd1af61461023b576100c2565b8063034b512b146100c7578063104ace02146100f257806327d1c8a61461011b5780632cd3d957146101445780633717ebc2146101815780634e96fd1d146101aa575b600080fd5b3480156100d357600080fd5b506100dc61030f565b6040516100e991906150ff565b60405180910390f35b3480156100fe57600080fd5b50610119600480360361011491908101906149d4565b610315565b005b34801561012757600080fd5b50610142600480360361013d9190810190614b6a565b61064d565b005b34801561015057600080fd5b5061016b60048036036101669190810190614aed565b611281565b60405161017891906150bb565b60405180910390f35b34801561018d57600080fd5b506101a860048036036101a39190810190614919565b611beb565b005b3480156101b657600080fd5b506101d160048036036101cc9190810190614be9565b611d02565b005b3480156101df57600080fd5b506101fa60048036036101f59190810190614aed565b61294a565b60405161020791906150dd565b60405180910390f35b34801561021c57600080fd5b50610225612a93565b60405161023291906150ff565b60405180910390f35b34801561024757600080fd5b50610262600480360361025d9190810190614b16565b612a99565b005b34801561027057600080fd5b5061028b60048036036102869190810190614b6a565b613681565b005b6102a760048036036102a291908101906148ca565b6142b7565b005b3480156102b557600080fd5b506102d060048036036102cb9190810190614aed565b61436a565b6040516102dd9190615016565b60405180910390f35b3480156102f257600080fd5b5061030d6004803603610308919081019061496d565b61456e565b005b60045481565b61031d6146bf565b600354816000018181525050600160035401600381905550868160200181905250858160400181905250848160600181905250838160800181905250828160a00181905250818160c0018190525033816101e0019073ffffffffffffffffffffffffffffffffffffffff16908173ffffffffffffffffffffffffffffffffffffffff16815250508060016000836000015181526020019081526020016000206000820151816000015560208201518160010190805190602001906103e2929190614752565b5060408201518160020190805190602001906103ff929190614752565b50606082015181600301908051906020019061041c929190614752565b506080820151816004019080519060200190610439929190614752565b5060a0820151816005019080519060200190610456929190614752565b5060c0820151816006019080519060200190610473929190614752565b5060e0820151816007019080519060200190610490929190614752565b506101008201518160080190805190602001906104ae929190614752565b506101208201518160090190805190602001906104cc929190614752565b5061014082015181600a0190805190602001906104ea929190614752565b5061016082015181600b019080519060200190610508929190614752565b5061018082015181600c019080519060200190610526929190614752565b506101a082015181600d019080519060200190610544929190614752565b506101c082015181600e019080519060200190610562929190614752565b506101e082015181600f0160006101000a81548173ffffffffffffffffffffffffffffffffffffffff021916908373ffffffffffffffffffffffffffffffffffffffff1602179055509050506001600260008360000151815260200190815260200160002060006101000a81548160ff0219169083151502179055507f9ab887260624b32719ade27a51dd6e1d52865861cd11914cb8fb939702d1e66c816000015182602001518360400151846060015185608001518660a001518760c00151886101e0015160405161063c98979695949392919061511a565b60405180910390a150505050505050565b60016000848152602001908152602001600020600f0160009054906101000a900473ffffffffffffffffffffffffffffffffffffffff1673ffffffffffffffffffffffffffffffffffffffff163373ffffffffffffffffffffffffffffffffffffffff16146106bb57600080fd5b6106c36146bf565b600160008581526020019081526020016000206040518061020001604052908160008201548152602001600182018054600181600116156101000203166002900480601f0160208091040260200160405190810160405280929190818152602001828054600181600116156101000203166002900480156107855780601f1061075a57610100808354040283529160200191610785565b820191906000526020600020905b81548152906001019060200180831161076857829003601f168201915b50505050508152602001600282018054600181600116156101000203166002900480601f0160208091040260200160405190810160405280929190818152602001828054600181600116156101000203166002900480156108275780601f106107fc57610100808354040283529160200191610827565b820191906000526020600020905b81548152906001019060200180831161080a57829003601f168201915b50505050508152602001600382018054600181600116156101000203166002900480601f0160208091040260200160405190810160405280929190818152602001828054600181600116156101000203166002900480156108c95780601f1061089e576101008083540402835291602001916108c9565b820191906000526020600020905b8154815290600101906020018083116108ac57829003601f168201915b50505050508152602001600482018054600181600116156101000203166002900480601f01602080910402602001604051908101604052809291908181526020018280546001816001161561010002031660029004801561096b5780601f106109405761010080835404028352916020019161096b565b820191906000526020600020905b81548152906001019060200180831161094e57829003601f168201915b50505050508152602001600582018054600181600116156101000203166002900480601f016020809104026020016040519081016040528092919081815260200182805460018160011615610100020316600290048015610a0d5780601f106109e257610100808354040283529160200191610a0d565b820191906000526020600020905b8154815290600101906020018083116109f057829003601f168201915b50505050508152602001600682018054600181600116156101000203166002900480601f016020809104026020016040519081016040528092919081815260200182805460018160011615610100020316600290048015610aaf5780601f10610a8457610100808354040283529160200191610aaf565b820191906000526020600020905b815481529060010190602001808311610a9257829003601f168201915b50505050508152602001600782018054600181600116156101000203166002900480601f016020809104026020016040519081016040528092919081815260200182805460018160011615610100020316600290048015610b515780601f10610b2657610100808354040283529160200191610b51565b820191906000526020600020905b815481529060010190602001808311610b3457829003601f168201915b50505050508152602001600882018054600181600116156101000203166002900480601f016020809104026020016040519081016040528092919081815260200182805460018160011615610100020316600290048015610bf35780601f10610bc857610100808354040283529160200191610bf3565b820191906000526020600020905b815481529060010190602001808311610bd657829003601f168201915b50505050508152602001600982018054600181600116156101000203166002900480601f016020809104026020016040519081016040528092919081815260200182805460018160011615610100020316600290048015610c955780601f10610c6a57610100808354040283529160200191610c95565b820191906000526020600020905b815481529060010190602001808311610c7857829003601f168201915b50505050508152602001600a82018054600181600116156101000203166002900480601f016020809104026020016040519081016040528092919081815260200182805460018160011615610100020316600290048015610d375780601f10610d0c57610100808354040283529160200191610d37565b820191906000526020600020905b815481529060010190602001808311610d1a57829003601f168201915b50505050508152602001600b82018054600181600116156101000203166002900480601f016020809104026020016040519081016040528092919081815260200182805460018160011615610100020316600290048015610dd95780601f10610dae57610100808354040283529160200191610dd9565b820191906000526020600020905b815481529060010190602001808311610dbc57829003601f168201915b50505050508152602001600c82018054600181600116156101000203166002900480601f016020809104026020016040519081016040528092919081815260200182805460018160011615610100020316600290048015610e7b5780601f10610e5057610100808354040283529160200191610e7b565b820191906000526020600020905b815481529060010190602001808311610e5e57829003601f168201915b50505050508152602001600d82018054600181600116156101000203166002900480601f016020809104026020016040519081016040528092919081815260200182805460018160011615610100020316600290048015610f1d5780601f10610ef257610100808354040283529160200191610f1d565b820191906000526020600020905b815481529060010190602001808311610f0057829003601f168201915b50505050508152602001600e82018054600181600116156101000203166002900480601f016020809104026020016040519081016040528092919081815260200182805460018160011615610100020316600290048015610fbf5780601f10610f9457610100808354040283529160200191610fbf565b820191906000526020600020905b815481529060010190602001808311610fa257829003601f168201915b50505050508152602001600f820160009054906101000a900473ffffffffffffffffffffffffffffffffffffffff1673ffffffffffffffffffffffffffffffffffffffff1673ffffffffffffffffffffffffffffffffffffffff16815250509050828160e0018190525081816101000181905250806001600086815260200190815260200160002060008201518160000155602082015181600101908051906020019061106d929190614752565b50604082015181600201908051906020019061108a929190614752565b5060608201518160030190805190602001906110a7929190614752565b5060808201518160040190805190602001906110c4929190614752565b5060a08201518160050190805190602001906110e1929190614752565b5060c08201518160060190805190602001906110fe929190614752565b5060e082015181600701908051906020019061111b929190614752565b50610100820151816008019080519060200190611139929190614752565b50610120820151816009019080519060200190611157929190614752565b5061014082015181600a019080519060200190611175929190614752565b5061016082015181600b019080519060200190611193929190614752565b5061018082015181600c0190805190602001906111b1929190614752565b506101a082015181600d0190805190602001906111cf929190614752565b506101c082015181600e0190805190602001906111ed929190614752565b506101e082015181600f0160006101000a81548173ffffffffffffffffffffffffffffffffffffffff021916908373ffffffffffffffffffffffffffffffffffffffff1602179055509050507f93d22701451c154b240a5fb07e3ea931e1af7745a783e9f897537cb18ac593ba8160e00151826101000151604051611273929190615038565b60405180910390a150505050565b6112896146bf565b600160008381526020019081526020016000206040518061020001604052908160008201548152602001600182018054600181600116156101000203166002900480601f01602080910402602001604051908101604052809291908181526020018280546001816001161561010002031660029004801561134b5780601f106113205761010080835404028352916020019161134b565b820191906000526020600020905b81548152906001019060200180831161132e57829003601f168201915b50505050508152602001600282018054600181600116156101000203166002900480601f0160208091040260200160405190810160405280929190818152602001828054600181600116156101000203166002900480156113ed5780601f106113c2576101008083540402835291602001916113ed565b820191906000526020600020905b8154815290600101906020018083116113d057829003601f168201915b50505050508152602001600382018054600181600116156101000203166002900480601f01602080910402602001604051908101604052809291908181526020018280546001816001161561010002031660029004801561148f5780601f106114645761010080835404028352916020019161148f565b820191906000526020600020905b81548152906001019060200180831161147257829003601f168201915b50505050508152602001600482018054600181600116156101000203166002900480601f0160208091040260200160405190810160405280929190818152602001828054600181600116156101000203166002900480156115315780601f1061150657610100808354040283529160200191611531565b820191906000526020600020905b81548152906001019060200180831161151457829003601f168201915b50505050508152602001600582018054600181600116156101000203166002900480601f0160208091040260200160405190810160405280929190818152602001828054600181600116156101000203166002900480156115d35780601f106115a8576101008083540402835291602001916115d3565b820191906000526020600020905b8154815290600101906020018083116115b657829003601f168201915b50505050508152602001600682018054600181600116156101000203166002900480601f0160208091040260200160405190810160405280929190818152602001828054600181600116156101000203166002900480156116755780601f1061164a57610100808354040283529160200191611675565b820191906000526020600020905b81548152906001019060200180831161165857829003601f168201915b50505050508152602001600782018054600181600116156101000203166002900480601f0160208091040260200160405190810160405280929190818152602001828054600181600116156101000203166002900480156117175780601f106116ec57610100808354040283529160200191611717565b820191906000526020600020905b8154815290600101906020018083116116fa57829003601f168201915b50505050508152602001600882018054600181600116156101000203166002900480601f0160208091040260200160405190810160405280929190818152602001828054600181600116156101000203166002900480156117b95780601f1061178e576101008083540402835291602001916117b9565b820191906000526020600020905b81548152906001019060200180831161179c57829003601f168201915b50505050508152602001600982018054600181600116156101000203166002900480601f01602080910402602001604051908101604052809291908181526020018280546001816001161561010002031660029004801561185b5780601f106118305761010080835404028352916020019161185b565b820191906000526020600020905b81548152906001019060200180831161183e57829003601f168201915b50505050508152602001600a82018054600181600116156101000203166002900480601f0160208091040260200160405190810160405280929190818152602001828054600181600116156101000203166002900480156118fd5780601f106118d2576101008083540402835291602001916118fd565b820191906000526020600020905b8154815290600101906020018083116118e057829003601f168201915b50505050508152602001600b82018054600181600116156101000203166002900480601f01602080910402602001604051908101604052809291908181526020018280546001816001161561010002031660029004801561199f5780601f106119745761010080835404028352916020019161199f565b820191906000526020600020905b81548152906001019060200180831161198257829003601f168201915b50505050508152602001600c82018054600181600116156101000203166002900480601f016020809104026020016040519081016040528092919081815260200182805460018160011615610100020316600290048015611a415780601f10611a1657610100808354040283529160200191611a41565b820191906000526020600020905b815481529060010190602001808311611a2457829003601f168201915b50505050508152602001600d82018054600181600116156101000203166002900480601f016020809104026020016040519081016040528092919081815260200182805460018160011615610100020316600290048015611ae35780601f10611ab857610100808354040283529160200191611ae3565b820191906000526020600020905b815481529060010190602001808311611ac657829003601f168201915b50505050508152602001600e82018054600181600116156101000203166002900480601f016020809104026020016040519081016040528092919081815260200182805460018160011615610100020316600290048015611b855780601f10611b5a57610100808354040283529160200191611b85565b820191906000526020600020905b815481529060010190602001808311611b6857829003601f168201915b50505050508152602001600f820160009054906101000a900473ffffffffffffffffffffffffffffffffffffffff1673ffffffffffffffffffffffffffffffffffffffff1673ffffffffffffffffffffffffffffffffffffffff16815250509050919050565b611bf36147d2565b82816000019073ffffffffffffffffffffffffffffffffffffffff16908173ffffffffffffffffffffffffffffffffffffffff1681525050818160400181905250600081606001901515908115158152505060046000815480929190600101919050555080600080600454815260200190815260200160002060008201518160000160006101000a81548173ffffffffffffffffffffffffffffffffffffffff021916908373ffffffffffffffffffffffffffffffffffffffff160217905550602082015181600101556040820151816002019080519060200190611cd9929190614752565b5060608201518160030160006101000a81548160ff021916908315150217905550905050505050565b60016000858152602001908152602001600020600f0160009054906101000a900473ffffffffffffffffffffffffffffffffffffffff1673ffffffffffffffffffffffffffffffffffffffff163373ffffffffffffffffffffffffffffffffffffffff1614611d7057600080fd5b611d786146bf565b600160008681526020019081526020016000206040518061020001604052908160008201548152602001600182018054600181600116156101000203166002900480601f016020809104026020016040519081016040528092919081815260200182805460018160011615610100020316600290048015611e3a5780601f10611e0f57610100808354040283529160200191611e3a565b820191906000526020600020905b815481529060010190602001808311611e1d57829003601f168201915b50505050508152602001600282018054600181600116156101000203166002900480601f016020809104026020016040519081016040528092919081815260200182805460018160011615610100020316600290048015611edc5780601f10611eb157610100808354040283529160200191611edc565b820191906000526020600020905b815481529060010190602001808311611ebf57829003601f168201915b50505050508152602001600382018054600181600116156101000203166002900480601f016020809104026020016040519081016040528092919081815260200182805460018160011615610100020316600290048015611f7e5780601f10611f5357610100808354040283529160200191611f7e565b820191906000526020600020905b815481529060010190602001808311611f6157829003601f168201915b50505050508152602001600482018054600181600116156101000203166002900480601f0160208091040260200160405190810160405280929190818152602001828054600181600116156101000203166002900480156120205780601f10611ff557610100808354040283529160200191612020565b820191906000526020600020905b81548152906001019060200180831161200357829003601f168201915b50505050508152602001600582018054600181600116156101000203166002900480601f0160208091040260200160405190810160405280929190818152602001828054600181600116156101000203166002900480156120c25780601f10612097576101008083540402835291602001916120c2565b820191906000526020600020905b8154815290600101906020018083116120a557829003601f168201915b50505050508152602001600682018054600181600116156101000203166002900480601f0160208091040260200160405190810160405280929190818152602001828054600181600116156101000203166002900480156121645780601f1061213957610100808354040283529160200191612164565b820191906000526020600020905b81548152906001019060200180831161214757829003601f168201915b50505050508152602001600782018054600181600116156101000203166002900480601f0160208091040260200160405190810160405280929190818152602001828054600181600116156101000203166002900480156122065780601f106121db57610100808354040283529160200191612206565b820191906000526020600020905b8154815290600101906020018083116121e957829003601f168201915b50505050508152602001600882018054600181600116156101000203166002900480601f0160208091040260200160405190810160405280929190818152602001828054600181600116156101000203166002900480156122a85780601f1061227d576101008083540402835291602001916122a8565b820191906000526020600020905b81548152906001019060200180831161228b57829003601f168201915b50505050508152602001600982018054600181600116156101000203166002900480601f01602080910402602001604051908101604052809291908181526020018280546001816001161561010002031660029004801561234a5780601f1061231f5761010080835404028352916020019161234a565b820191906000526020600020905b81548152906001019060200180831161232d57829003601f168201915b50505050508152602001600a82018054600181600116156101000203166002900480601f0160208091040260200160405190810160405280929190818152602001828054600181600116156101000203166002900480156123ec5780601f106123c1576101008083540402835291602001916123ec565b820191906000526020600020905b8154815290600101906020018083116123cf57829003601f168201915b50505050508152602001600b82018054600181600116156101000203166002900480601f01602080910402602001604051908101604052809291908181526020018280546001816001161561010002031660029004801561248e5780601f106124635761010080835404028352916020019161248e565b820191906000526020600020905b81548152906001019060200180831161247157829003601f168201915b50505050508152602001600c82018054600181600116156101000203166002900480601f0160208091040260200160405190810160405280929190818152602001828054600181600116156101000203166002900480156125305780601f1061250557610100808354040283529160200191612530565b820191906000526020600020905b81548152906001019060200180831161251357829003601f168201915b50505050508152602001600d82018054600181600116156101000203166002900480601f0160208091040260200160405190810160405280929190818152602001828054600181600116156101000203166002900480156125d25780601f106125a7576101008083540402835291602001916125d2565b820191906000526020600020905b8154815290600101906020018083116125b557829003601f168201915b50505050508152602001600e82018054600181600116156101000203166002900480601f0160208091040260200160405190810160405280929190818152602001828054600181600116156101000203166002900480156126745780601f1061264957610100808354040283529160200191612674565b820191906000526020600020905b81548152906001019060200180831161265757829003601f168201915b50505050508152602001600f820160009054906101000a900473ffffffffffffffffffffffffffffffffffffffff1673ffffffffffffffffffffffffffffffffffffffff1673ffffffffffffffffffffffffffffffffffffffff16815250509050838161012001819052508281610140018190525081816101600181905250806001600087815260200190815260200160002060008201518160000155602082015181600101908051906020019061272d929190614752565b50604082015181600201908051906020019061274a929190614752565b506060820151816003019080519060200190612767929190614752565b506080820151816004019080519060200190612784929190614752565b5060a08201518160050190805190602001906127a1929190614752565b5060c08201518160060190805190602001906127be929190614752565b5060e08201518160070190805190602001906127db929190614752565b506101008201518160080190805190602001906127f9929190614752565b50610120820151816009019080519060200190612817929190614752565b5061014082015181600a019080519060200190612835929190614752565b5061016082015181600b019080519060200190612853929190614752565b5061018082015181600c019080519060200190612871929190614752565b506101a082015181600d01908051906020019061288f929190614752565b506101c082015181600e0190805190602001906128ad929190614752565b506101e082015181600f0160006101000a81548173ffffffffffffffffffffffffffffffffffffffff021916908373ffffffffffffffffffffffffffffffffffffffff1602179055509050507ff636f836107f58d31ae897e366e0bbfd3afdd898497378853db19e02aa1dfeb781610120015182610140015183610160015160405161293b9392919061506f565b60405180910390a15050505050565b6129526147d2565b6000808381526020019081526020016000206040518060800160405290816000820160009054906101000a900473ffffffffffffffffffffffffffffffffffffffff1673ffffffffffffffffffffffffffffffffffffffff1673ffffffffffffffffffffffffffffffffffffffff16815260200160018201548152602001600282018054600181600116156101000203166002900480601f016020809104026020016040519081016040528092919081815260200182805460018160011615610100020316600290048015612a685780601f10612a3d57610100808354040283529160200191612a68565b820191906000526020600020905b815481529060010190602001808311612a4b57829003601f168201915b505050505081526020016003820160009054906101000a900460ff1615151515815250509050919050565b60035481565b60016000838152602001908152602001600020600f0160009054906101000a900473ffffffffffffffffffffffffffffffffffffffff1673ffffffffffffffffffffffffffffffffffffffff163373ffffffffffffffffffffffffffffffffffffffff1614612b0757600080fd5b612b0f6146bf565b600160008481526020019081526020016000206040518061020001604052908160008201548152602001600182018054600181600116156101000203166002900480601f016020809104026020016040519081016040528092919081815260200182805460018160011615610100020316600290048015612bd15780601f10612ba657610100808354040283529160200191612bd1565b820191906000526020600020905b815481529060010190602001808311612bb457829003601f168201915b50505050508152602001600282018054600181600116156101000203166002900480601f016020809104026020016040519081016040528092919081815260200182805460018160011615610100020316600290048015612c735780601f10612c4857610100808354040283529160200191612c73565b820191906000526020600020905b815481529060010190602001808311612c5657829003601f168201915b50505050508152602001600382018054600181600116156101000203166002900480601f016020809104026020016040519081016040528092919081815260200182805460018160011615610100020316600290048015612d155780601f10612cea57610100808354040283529160200191612d15565b820191906000526020600020905b815481529060010190602001808311612cf857829003601f168201915b50505050508152602001600482018054600181600116156101000203166002900480601f016020809104026020016040519081016040528092919081815260200182805460018160011615610100020316600290048015612db75780601f10612d8c57610100808354040283529160200191612db7565b820191906000526020600020905b815481529060010190602001808311612d9a57829003601f168201915b50505050508152602001600582018054600181600116156101000203166002900480601f016020809104026020016040519081016040528092919081815260200182805460018160011615610100020316600290048015612e595780601f10612e2e57610100808354040283529160200191612e59565b820191906000526020600020905b815481529060010190602001808311612e3c57829003601f168201915b50505050508152602001600682018054600181600116156101000203166002900480601f016020809104026020016040519081016040528092919081815260200182805460018160011615610100020316600290048015612efb5780601f10612ed057610100808354040283529160200191612efb565b820191906000526020600020905b815481529060010190602001808311612ede57829003601f168201915b50505050508152602001600782018054600181600116156101000203166002900480601f016020809104026020016040519081016040528092919081815260200182805460018160011615610100020316600290048015612f9d5780601f10612f7257610100808354040283529160200191612f9d565b820191906000526020600020905b815481529060010190602001808311612f8057829003601f168201915b50505050508152602001600882018054600181600116156101000203166002900480601f01602080910402602001604051908101604052809291908181526020018280546001816001161561010002031660029004801561303f5780601f106130145761010080835404028352916020019161303f565b820191906000526020600020905b81548152906001019060200180831161302257829003601f168201915b50505050508152602001600982018054600181600116156101000203166002900480601f0160208091040260200160405190810160405280929190818152602001828054600181600116156101000203166002900480156130e15780601f106130b6576101008083540402835291602001916130e1565b820191906000526020600020905b8154815290600101906020018083116130c457829003601f168201915b50505050508152602001600a82018054600181600116156101000203166002900480601f0160208091040260200160405190810160405280929190818152602001828054600181600116156101000203166002900480156131835780601f1061315857610100808354040283529160200191613183565b820191906000526020600020905b81548152906001019060200180831161316657829003601f168201915b50505050508152602001600b82018054600181600116156101000203166002900480601f0160208091040260200160405190810160405280929190818152602001828054600181600116156101000203166002900480156132255780601f106131fa57610100808354040283529160200191613225565b820191906000526020600020905b81548152906001019060200180831161320857829003601f168201915b50505050508152602001600c82018054600181600116156101000203166002900480601f0160208091040260200160405190810160405280929190818152602001828054600181600116156101000203166002900480156132c75780601f1061329c576101008083540402835291602001916132c7565b820191906000526020600020905b8154815290600101906020018083116132aa57829003601f168201915b50505050508152602001600d82018054600181600116156101000203166002900480601f0160208091040260200160405190810160405280929190818152602001828054600181600116156101000203166002900480156133695780601f1061333e57610100808354040283529160200191613369565b820191906000526020600020905b81548152906001019060200180831161334c57829003601f168201915b50505050508152602001600e82018054600181600116156101000203166002900480601f01602080910402602001604051908101604052809291908181526020018280546001816001161561010002031660029004801561340b5780601f106133e05761010080835404028352916020019161340b565b820191906000526020600020905b8154815290600101906020018083116133ee57829003601f168201915b50505050508152602001600f820160009054906101000a900473ffffffffffffffffffffffffffffffffffffffff1673ffffffffffffffffffffffffffffffffffffffff1673ffffffffffffffffffffffffffffffffffffffff1681525050905081816101a0018190525080600160008581526020019081526020016000206000820151816000015560208201518160010190805190602001906134b0929190614752565b5060408201518160020190805190602001906134cd929190614752565b5060608201518160030190805190602001906134ea929190614752565b506080820151816004019080519060200190613507929190614752565b5060a0820151816005019080519060200190613524929190614752565b5060c0820151816006019080519060200190613541929190614752565b5060e082015181600701908051906020019061355e929190614752565b5061010082015181600801908051906020019061357c929190614752565b5061012082015181600901908051906020019061359a929190614752565b5061014082015181600a0190805190602001906135b8929190614752565b5061016082015181600b0190805190602001906135d6929190614752565b5061018082015181600c0190805190602001906135f4929190614752565b506101a082015181600d019080519060200190613612929190614752565b506101c082015181600e019080519060200190613630929190614752565b506101e082015181600f0160006101000a81548173ffffffffffffffffffffffffffffffffffffffff021916908373ffffffffffffffffffffffffffffffffffffffff160217905550905050505050565b60016000848152602001908152602001600020600f0160009054906101000a900473ffffffffffffffffffffffffffffffffffffffff1673ffffffffffffffffffffffffffffffffffffffff163373ffffffffffffffffffffffffffffffffffffffff16146136ef57600080fd5b6136f76146bf565b600160008581526020019081526020016000206040518061020001604052908160008201548152602001600182018054600181600116156101000203166002900480601f0160208091040260200160405190810160405280929190818152602001828054600181600116156101000203166002900480156137b95780601f1061378e576101008083540402835291602001916137b9565b820191906000526020600020905b81548152906001019060200180831161379c57829003601f168201915b50505050508152602001600282018054600181600116156101000203166002900480601f01602080910402602001604051908101604052809291908181526020018280546001816001161561010002031660029004801561385b5780601f106138305761010080835404028352916020019161385b565b820191906000526020600020905b81548152906001019060200180831161383e57829003601f168201915b50505050508152602001600382018054600181600116156101000203166002900480601f0160208091040260200160405190810160405280929190818152602001828054600181600116156101000203166002900480156138fd5780601f106138d2576101008083540402835291602001916138fd565b820191906000526020600020905b8154815290600101906020018083116138e057829003601f168201915b50505050508152602001600482018054600181600116156101000203166002900480601f01602080910402602001604051908101604052809291908181526020018280546001816001161561010002031660029004801561399f5780601f106139745761010080835404028352916020019161399f565b820191906000526020600020905b81548152906001019060200180831161398257829003601f168201915b50505050508152602001600582018054600181600116156101000203166002900480601f016020809104026020016040519081016040528092919081815260200182805460018160011615610100020316600290048015613a415780601f10613a1657610100808354040283529160200191613a41565b820191906000526020600020905b815481529060010190602001808311613a2457829003601f168201915b50505050508152602001600682018054600181600116156101000203166002900480601f016020809104026020016040519081016040528092919081815260200182805460018160011615610100020316600290048015613ae35780601f10613ab857610100808354040283529160200191613ae3565b820191906000526020600020905b815481529060010190602001808311613ac657829003601f168201915b50505050508152602001600782018054600181600116156101000203166002900480601f016020809104026020016040519081016040528092919081815260200182805460018160011615610100020316600290048015613b855780601f10613b5a57610100808354040283529160200191613b85565b820191906000526020600020905b815481529060010190602001808311613b6857829003601f168201915b50505050508152602001600882018054600181600116156101000203166002900480601f016020809104026020016040519081016040528092919081815260200182805460018160011615610100020316600290048015613c275780601f10613bfc57610100808354040283529160200191613c27565b820191906000526020600020905b815481529060010190602001808311613c0a57829003601f168201915b50505050508152602001600982018054600181600116156101000203166002900480601f016020809104026020016040519081016040528092919081815260200182805460018160011615610100020316600290048015613cc95780601f10613c9e57610100808354040283529160200191613cc9565b820191906000526020600020905b815481529060010190602001808311613cac57829003601f168201915b50505050508152602001600a82018054600181600116156101000203166002900480601f016020809104026020016040519081016040528092919081815260200182805460018160011615610100020316600290048015613d6b5780601f10613d4057610100808354040283529160200191613d6b565b820191906000526020600020905b815481529060010190602001808311613d4e57829003601f168201915b50505050508152602001600b82018054600181600116156101000203166002900480601f016020809104026020016040519081016040528092919081815260200182805460018160011615610100020316600290048015613e0d5780601f10613de257610100808354040283529160200191613e0d565b820191906000526020600020905b815481529060010190602001808311613df057829003601f168201915b50505050508152602001600c82018054600181600116156101000203166002900480601f016020809104026020016040519081016040528092919081815260200182805460018160011615610100020316600290048015613eaf5780601f10613e8457610100808354040283529160200191613eaf565b820191906000526020600020905b815481529060010190602001808311613e9257829003601f168201915b50505050508152602001600d82018054600181600116156101000203166002900480601f016020809104026020016040519081016040528092919081815260200182805460018160011615610100020316600290048015613f515780601f10613f2657610100808354040283529160200191613f51565b820191906000526020600020905b815481529060010190602001808311613f3457829003601f168201915b50505050508152602001600e82018054600181600116156101000203166002900480601f016020809104026020016040519081016040528092919081815260200182805460018160011615610100020316600290048015613ff35780601f10613fc857610100808354040283529160200191613ff3565b820191906000526020600020905b815481529060010190602001808311613fd657829003601f168201915b50505050508152602001600f820160009054906101000a900473ffffffffffffffffffffffffffffffffffffffff1673ffffffffffffffffffffffffffffffffffffffff1673ffffffffffffffffffffffffffffffffffffffff168152505090508281610180018190525081816101c0018190525080600160008681526020019081526020016000206000820151816000015560208201518160010190805190602001906140a2929190614752565b5060408201518160020190805190602001906140bf929190614752565b5060608201518160030190805190602001906140dc929190614752565b5060808201518160040190805190602001906140f9929190614752565b5060a0820151816005019080519060200190614116929190614752565b5060c0820151816006019080519060200190614133929190614752565b5060e0820151816007019080519060200190614150929190614752565b5061010082015181600801908051906020019061416e929190614752565b5061012082015181600901908051906020019061418c929190614752565b5061014082015181600a0190805190602001906141aa929190614752565b5061016082015181600b0190805190602001906141c8929190614752565b5061018082015181600c0190805190602001906141e6929190614752565b506101a082015181600d019080519060200190614204929190614752565b506101c082015181600e019080519060200190614222929190614752565b506101e082015181600f0160006101000a81548173ffffffffffffffffffffffffffffffffffffffff021916908373ffffffffffffffffffffffffffffffffffffffff1602179055509050507fed50b982acccc0614eb35555b128f45780b427c548ae3445430a69e3e0ed0af0816101800151826101c001516040516142a9929190615038565b60405180910390a150505050565b8173ffffffffffffffffffffffffffffffffffffffff166108fc349081150290604051600060405180830381858888f193505050501580156142fd573d6000803e3d6000fd5b50600160008083815260200190815260200160002060030160006101000a81548160ff0219169083151502179055507fdc92214c02e832ff1fedea5e075e3d6b571d1dd6897b9fe1ac3386a223db9eea838360405161435d929190614faf565b60405180910390a1505050565b606060016000838152602001908152602001600020600f0160009054906101000a900473ffffffffffffffffffffffffffffffffffffffff1673ffffffffffffffffffffffffffffffffffffffff163373ffffffffffffffffffffffffffffffffffffffff16148061441b575073a79802199a381b3fcd2bd06c84795627607a7e8373ffffffffffffffffffffffffffffffffffffffff163373ffffffffffffffffffffffffffffffffffffffff16145b806144655750736ac459937a1d1fc58b3f8c615153d91e75106d4873ffffffffffffffffffffffffffffffffffffffff163373ffffffffffffffffffffffffffffffffffffffff16145b806144af575073a1b0e0b3a4e8b4e6c897b3fa8ec0a22f8927209473ffffffffffffffffffffffffffffffffffffffff163373ffffffffffffffffffffffffffffffffffffffff16145b6144b857600080fd5b60016000838152602001908152602001600020600d018054600181600116156101000203166002900480601f0160208091040260200160405190810160405280929190818152602001828054600181600116156101000203166002900480156145625780601f1061453757610100808354040283529160200191614562565b820191906000526020600020905b81548152906001019060200180831161454557829003601f168201915b50505050509050919050565b600115156002600084815260200190815260200160002060009054906101000a900460ff1615151461459f57600080fd5b73a79802199a381b3fcd2bd06c84795627607a7e8373ffffffffffffffffffffffffffffffffffffffff163373ffffffffffffffffffffffffffffffffffffffff16148061462c5750736ac459937a1d1fc58b3f8c615153d91e75106d4873ffffffffffffffffffffffffffffffffffffffff163373ffffffffffffffffffffffffffffffffffffffff16145b80614676575073a1b0e0b3a4e8b4e6c897b3fa8ec0a22f8927209473ffffffffffffffffffffffffffffffffffffffff163373ffffffffffffffffffffffffffffffffffffffff16145b61467f57600080fd5b7fb9d737634fef188e962973ff1b7297bef2d4f180e960f7424270db6f9d57c2d48383836040516146b293929190614fd8565b60405180910390a1505050565b604051806102000160405280600081526020016060815260200160608152602001606081526020016060815260200160608152602001606081526020016060815260200160608152602001606081526020016060815260200160608152602001606081526020016060815260200160608152602001600073ffffffffffffffffffffffffffffffffffffffff1681525090565b828054600181600116156101000203166002900490600052602060002090601f016020900481019282601f1061479357805160ff19168380011785556147c1565b828001600101855582156147c1579182015b828111156147c05782518255916020019190600101906147a5565b5b5090506147ce9190614812565b5090565b6040518060800160405280600073ffffffffffffffffffffffffffffffffffffffff16815260200160008152602001606081526020016000151581525090565b61483491905b80821115614830576000816000905550600101614818565b5090565b90565b60008135905061484681615336565b92915050565b60008135905061485b8161534d565b92915050565b600082601f83011261487257600080fd5b8135614885614880826151ef565b6151c2565b915080825260208301602083018583830111156148a157600080fd5b6148ac8382846152e3565b50505092915050565b6000813590506148c481615364565b92915050565b6000806000606084860312156148df57600080fd5b60006148ed8682870161484c565b93505060206148fe8682870161484c565b925050604061490f868287016148b5565b9150509250925092565b6000806040838503121561492c57600080fd5b600061493a85828601614837565b925050602083013567ffffffffffffffff81111561495757600080fd5b61496385828601614861565b9150509250929050565b60008060006060848603121561498257600080fd5b600061499086828701614837565b93505060206149a1868287016148b5565b925050604084013567ffffffffffffffff8111156149be57600080fd5b6149ca86828701614861565b9150509250925092565b60008060008060008060c087890312156149ed57600080fd5b600087013567ffffffffffffffff811115614a0757600080fd5b614a1389828a01614861565b965050602087013567ffffffffffffffff811115614a3057600080fd5b614a3c89828a01614861565b955050604087013567ffffffffffffffff811115614a5957600080fd5b614a6589828a01614861565b945050606087013567ffffffffffffffff811115614a8257600080fd5b614a8e89828a01614861565b935050608087013567ffffffffffffffff811115614aab57600080fd5b614ab789828a01614861565b92505060a087013567ffffffffffffffff811115614ad457600080fd5b614ae089828a01614861565b9150509295509295509295565b600060208284031215614aff57600080fd5b6000614b0d848285016148b5565b91505092915050565b60008060408385031215614b2957600080fd5b6000614b37858286016148b5565b925050602083013567ffffffffffffffff811115614b5457600080fd5b614b6085828601614861565b9150509250929050565b600080600060608486031215614b7f57600080fd5b6000614b8d868287016148b5565b935050602084013567ffffffffffffffff811115614baa57600080fd5b614bb686828701614861565b925050604084013567ffffffffffffffff811115614bd357600080fd5b614bdf86828701614861565b9150509250925092565b60008060008060808587031215614bff57600080fd5b6000614c0d878288016148b5565b945050602085013567ffffffffffffffff811115614c2a57600080fd5b614c3687828801614861565b935050604085013567ffffffffffffffff811115614c5357600080fd5b614c5f87828801614861565b925050606085013567ffffffffffffffff811115614c7c57600080fd5b614c8887828801614861565b91505092959194509250565b614c9d816152ad565b82525050565b614cac81615253565b82525050565b614cbb81615253565b82525050565b614cca81615277565b82525050565b6000614cdb82615226565b614ce58185615242565b9350614cf58185602086016152f2565b614cfe81615325565b840191505092915050565b6000614d148261521b565b614d1e8185615231565b9350614d2e8185602086016152f2565b614d3781615325565b840191505092915050565b6000614d4d8261521b565b614d578185615242565b9350614d678185602086016152f2565b614d7081615325565b840191505092915050565b600061020083016000830151614d946000860182614f91565b5060208301518482036020860152614dac8282614d09565b91505060408301518482036040860152614dc68282614d09565b91505060608301518482036060860152614de08282614d09565b91505060808301518482036080860152614dfa8282614d09565b91505060a083015184820360a0860152614e148282614d09565b91505060c083015184820360c0860152614e2e8282614d09565b91505060e083015184820360e0860152614e488282614d09565b915050610100830151848203610100860152614e648282614d09565b915050610120830151848203610120860152614e808282614d09565b915050610140830151848203610140860152614e9c8282614d09565b915050610160830151848203610160860152614eb88282614d09565b915050610180830151848203610180860152614ed48282614d09565b9150506101a08301518482036101a0860152614ef08282614d09565b9150506101c08301518482036101c0860152614f0c8282614d09565b9150506101e0830151614f236101e0860182614ca3565b508091505092915050565b6000608083016000830151614f466000860182614ca3565b506020830151614f596020860182614f91565b5060408301518482036040860152614f718282614d09565b9150506060830151614f866060860182614cc1565b508091505092915050565b614f9a816152a3565b82525050565b614fa9816152a3565b82525050565b6000604082019050614fc46000830185614c94565b614fd16020830184614c94565b9392505050565b6000606082019050614fed6000830186614cb2565b614ffa6020830185614fa0565b818103604083015261500c8184614cd0565b9050949350505050565b600060208201905081810360008301526150308184614cd0565b905092915050565b600060408201905081810360008301526150528185614d42565b905081810360208301526150668184614d42565b90509392505050565b600060608201905081810360008301526150898186614d42565b9050818103602083015261509d8185614d42565b905081810360408301526150b18184614d42565b9050949350505050565b600060208201905081810360008301526150d58184614d7b565b905092915050565b600060208201905081810360008301526150f78184614f2e565b905092915050565b60006020820190506151146000830184614fa0565b92915050565b600061010082019050615130600083018b614fa0565b8181036020830152615142818a614d42565b905081810360408301526151568189614d42565b9050818103606083015261516a8188614d42565b9050818103608083015261517e8187614d42565b905081810360a08301526151928186614d42565b905081810360c08301526151a68185614d42565b90506151b560e0830184614cb2565b9998505050505050505050565b6000604051905081810181811067ffffffffffffffff821117156151e557600080fd5b8060405250919050565b600067ffffffffffffffff82111561520657600080fd5b601f19601f8301169050602081019050919050565b600081519050919050565b600081519050919050565b600082825260208201905092915050565b600082825260208201905092915050565b600061525e82615283565b9050919050565b600061527082615283565b9050919050565b60008115159050919050565b600073ffffffffffffffffffffffffffffffffffffffff82169050919050565b6000819050919050565b60006152b8826152bf565b9050919050565b60006152ca826152d1565b9050919050565b60006152dc82615283565b9050919050565b82818337600083830152505050565b60005b838110156153105780820151818401526020810190506152f5565b8381111561531f576000848401525b50505050565b6000601f19601f8301169050919050565b61533f81615253565b811461534a57600080fd5b50565b61535681615265565b811461536157600080fd5b50565b61536d816152a3565b811461537857600080fd5b5056fea365627a7a72315820ff6a9d418f0863c3dc5198f129f76dd1fcb72406fcd096514deb1070ee10dc786c6578706572696d656e74616cf564736f6c63430005100040",
  "source": "pragma solidity ^0.5.0;\r\npragma experimental ABIEncoderV2;\r\ncontract PiratesCatcher\r\n{\r\n    struct Movie\r\n    {\r\n        uint id;\r\n        string name;\r\n        string director;\r\n        string writer;\r\n        string genre;\r\n        string language;\r\n        string country;\r\n        string coreidea;\r\n        string producer;\r\n        string cast;\r\n        string budget;\r\n        string shootlocation;\r\n        string shoothashes;\r\n        string siahash;\r\n        string shootdate;\r\n        address directoraddress;\r\n        //uint counter;\r\n    }  \r\n    struct Request\r\n    {\r\n        address reporter;\r\n        uint id;\r\n        string movielink;\r\n        bool fulfill;\r\n    }\r\n    mapping(uint=>Request) reporterrequests;\r\n    mapping(uint=>Movie)  movies;\r\n    mapping(uint=>bool) movielist;\r\n    uint public counter=1;\r\n    uint public requestcounter=0;\r\n    event RegistrationDone(uint id,string name,string director,string writer,string genre,string language,string country,address directoraddress);\r\n    event IdeationDone(string coreidea,string producer);\r\n    event Preproduction(string cast,string budget,string shootlocation);\r\n    event Production(string shoothash,string shootdate);\r\n    event FinalEditingDone(string siahash);\r\n    event CinemaTelecasted(address cinema,uint id,string time);\r\n    event PirateReported(address piratecinema,address reporter);\r\n    //Movie m;\r\n    function register(string memory name,string memory director,string memory writer,string memory genre,string memory language,string memory country) public\r\n    {\r\n        //director registers movie\r\n        Movie memory m;\r\n        m.id=counter;\r\n        counter=counter+1;\r\n        m.name=name;\r\n        m.director=director;\r\n        m.writer=writer;\r\n        m.genre=genre;\r\n        m.language=language;\r\n        m.country=country;\r\n        m.directoraddress=msg.sender;\r\n        //m.counter=0;\r\n        movies[m.id]=m;\r\n        movielist[m.id]=true;\r\n        emit RegistrationDone(m.id,m.name,m.director,m.writer,m.genre,m.language,m.country,m.directoraddress);\r\n    }\r\n    function ideation(uint id,string memory coreidea,string memory producer) public\r\n    {\r\n        //director allowed\r\n        require(msg.sender==movies[id].directoraddress);\r\n        Movie memory m=movies[id];\r\n        m.coreidea=coreidea;\r\n        m.producer=producer;\r\n        movies[id]=m;\r\n        emit IdeationDone(m.coreidea,m.producer);\r\n    }\r\n    function preproduction(uint  id,string memory cast,string memory budget,string memory shootlocation)public\r\n    {\r\n        //director allowed\r\n        require(msg.sender==movies[id].directoraddress);\r\n        Movie memory m=movies[id];\r\n        m.cast=cast;\r\n        m.budget=budget;\r\n        m.shootlocation=shootlocation;\r\n        movies[id]=m;\r\n        emit Preproduction(m.cast,m.budget,m.shootlocation);\r\n    }\r\n    function productionshoot(uint  id,string memory ipfshashes,string memory shootdate)public \r\n    {\r\n        //director allowed\r\n        require(msg.sender==movies[id].directoraddress);\r\n        Movie memory m=movies[id];\r\n        m.shoothashes=ipfshashes;\r\n        //gethashes[m.counter]=ipfshash;\r\n        //m.counter=m.counter+1;\r\n        //m.shoothashes=gethashes;\r\n        m.shootdate=shootdate;\r\n        movies[id]=m;\r\n        emit Production(m.shoothashes,m.shootdate);\r\n    }\r\n    function finalediting(uint  id,string memory siahash)public \r\n    {\r\n        //director allowed\r\n        require(msg.sender==movies[id].directoraddress);\r\n        Movie memory m=movies[id];\r\n        m.siahash=siahash;\r\n        movies[id]=m;\r\n    }\r\n    function getmovie(uint  id)public view returns(Movie memory)\r\n    {\r\n        return movies[id];\r\n    }\r\n    function getmoviehash(uint  id)public view returns(string memory)\r\n    {\r\n        //director,3 cinemas allowed\r\n        require(msg.sender==movies[id].directoraddress || msg.sender==0xa79802199A381B3fcd2Bd06c84795627607A7E83 || msg.sender==0x6ac459937a1d1fc58b3f8C615153D91E75106D48 || msg.sender==0xA1B0e0b3a4E8b4E6C897b3fA8eC0a22F89272094);\r\n        return movies[id].siahash;\r\n    }\r\n    function reporterbounty(address payable piratecinema,address payable reporter,uint requestid)public payable\r\n    {\r\n        \r\n        //require(msg.sender==movies[id].directoraddress);\r\n        //require(piratecinema==0xa79802199A381B3fcd2Bd06c84795627607A7E83 || piratecinema==0x6ac459937a1d1fc58b3f8C615153D91E75106D48 || piratecinema==0xA1B0e0b3a4E8b4E6C897b3fA8eC0a22F89272094);\r\n        address(reporter).transfer(msg.value);\r\n        reporterrequests[requestid].fulfill=true;\r\n          //  Request memory r=reporterrequests[requestid];\r\n            //r.fulfill=true;\r\n            //reporterrequests[requestid]=\r\n        emit PirateReported(piratecinema,reporter);\r\n    }\r\n    function addReporter(address reporter,string memory movielink)public\r\n    {\r\n        //address[] storage array=reporters[id];\r\n        //array.push(reporter);\r\n        //reporters[id]=array;\r\n        Request memory r;\r\n        r.reporter=reporter;\r\n        //r.id=id;\r\n        r.movielink=movielink;\r\n        r.fulfill=false;\r\n        \r\n        requestcounter++;\r\n        reporterrequests[requestcounter]=r;\r\n    }\r\n   \r\n    function getreporterrequest(uint key)public view returns(Request memory)\r\n    {\r\n        return reporterrequests[key];\r\n    }\r\n    function cinematelecasted(address cinema,uint id,string memory time)public\r\n    {\r\n        //3 cinemas allowed\r\n        require(movielist[id]==true);\r\n        require(msg.sender==0xa79802199A381B3fcd2Bd06c84795627607A7E83 || msg.sender==0x6ac459937a1d1fc58b3f8C615153D91E75106D48 || msg.sender==0xA1B0e0b3a4E8b4E6C897b3fA8eC0a22F89272094);\r\n        emit CinemaTelecasted(cinema,id,time);\r\n    }\r\n   \r\n}",
  "sourcePath": "F:/VividhProject1/pirates-catcher/src/contracts/PiratesCatcher.sol",
  "compiler": {
    "name": "solc",
    "version": "0.5.16+commit.9c3226ce.Emscripten.clang"
  },
  "schemaVersion": "3.3.2",
  "updatedAt": "2021-01-06T15:00:52.504Z",
  "networkType": "ethereum",
  "devdoc": {
    "methods": {}
  },
  "userdoc": {
    "methods": {}
  }
}